S0220000417A757265436C6F75645241364D35583530395F4653503432302E73726563E5
S3150000000050C10120312608004D2308003F26080074
S315000000103F2608003F2608003F2608003F26080026
S315000000200000000000000000000000003F2608005D
S315000000303F260800000000003DF70300BDF703005F
S31500000040FDF60700BDED0700FDF6070091E9070084
S31500000050C5E90700F9E907002DEA0700BDED07002D
S31500000060BDED0700774D0400ED4B0400074F04007B
S315000000705F4F04001503080079020800851E08007A
S31500000080000000000000000000000000000000006A
S31500000090000000000000000000000000000000005A
S315000000A0000000000000000000000000000000004A
S315000000B0000000000000000000000000000000003A
S315000000C0000000000000000000000000000000002A
S315000000D0000000000000000000000000000000001A
S315000000E0000000000000000000000000000000000A
S315000000F000000000000000000000000000000000FA
S3150000010000000000000000000000000000000000E9
S3150000011000000000000000000000000000000000D9
S3150000012000000000000000000000000000000000C9
S3150000013000000000000000000000000000000000B9
S3150000014000000000000000000000000000000000A9
S315000001500000000000000000000000000000000099
S315000001600000000000000000000000000000000089
S315000001700000000000000000000000000000000079
S315000001800000000000000000000000000000000069
S315000001900000000000000000000000000000000059
S315000001A00000000000000000000000000000000049
S315000001B00000000000000000000000000000000039
S315000001C0FFFFFFFFFFFFFFFFFFFFFFFFFFFFFFFF39
S315000001D0FFFFFFFFFFFFFFFFFFFFFFFFFFFFFFFF29
S315000001E0FFFFFFFFFFFFFFFFFFFFFFFFFFFFFFFF19
S315000001F0FFFFFFFFFFFFFFFFFFFFFFFFFFFFFFFF09
S3150000020010B5054C237833B9044B13B1044800E00C
S3150000021000BF0123237010BD40080020000000002D
S3150000022070F3080008B5034B1BB10349034800E00F
S3150000023000BF08BD000000004408002070F308005D
S3150000024080B58AB000AFF860B9607A607B6800223A
S315000002505A807B680022A3F8AC2E7B680022A3F8A4
S3150000026050207B684FF000025A617B68002283F8B9
S315000002705A207B680022A3F8AC2E7B680022DA6540
S315000002807B680022A3F8222F7B680022A3F8242F84
S315000002907B68082283F8B22E7B6893F8B23E194633
S315000002A0012002F013FF7B6893F8B23E1946002046
S315000002B002F00CFF7B68002283F81E2F7B68002269
S315000002C083F81F2F7B68002283F8202F724A07F1DC
S315000002D01C0392E803001860043319706F4A07F193
S315000002E0140392E803001860043319707B680B222C
S315000002F083F8B52100237B621AE007F11C027B6AB2
S31500000300134419787A687B6A134403F5D5730A4651
S315000003101A7007F114027B6A134419787A687B6AAB
S31500000320134403F2AF130A461A707B6A01337B62E9
S315000003307B6A042BE1DD7B68002283F844207B681E
S31500000340002283F85B247B680022C3F888217B683F
S31500000350002283F884217B68002283F85A247B6874
S31500000360002283F859247B680022C3F89C247B680A
S315000003700022C3F88821042003F006FF7B680022D0
S31500000380A3F898247B680022A3F89A247B680022AD
S315000003909A857B6800229A647B680022DA647B680F
S315000003A000229A637B680022DA637B6800221A6364
S315000003B07B6800225A637B68012283F8E82F0020BD
S315000003C003F0E2FE012003F0DFFE022003F0DCFE74
S315000003D0032003F0D9FE324B042283F83A20304B37
S315000003E0042283F85E202E4B012283F880207B684E
S315000003F003F2A44318469FED2B0A01F033FAF0EE00
S31500000400407A7B6803F59563C3ED007A7B6800222A
S3150000041083F8282F7B680022A3F8A024786801F0CF
S31500000420C7FCB86803F069FA7B680022A3F8542079
S315000004307B684FF000025A627B684FF000021A6236
S315000004407B680022A3F856207B680022A3F8B02E12
S315000004507B6803F58053002283F86D217B6803F5E2
S315000004608053002283F86C217B6803F580530022B9
S3150000047083F86D217B6803F58053002283F86E2193
S31500000480FB6893F873207B6803F5805383F86F212C
S3150000049000BF2837BD4680BD586E0800606E080054
S315000004A0641C00200000000080B582B000AF7860B8
S315000004B07B681B6B1A467B689A647B681B6B9AB2D7
S315000004C07B689B6B9BB2D31A9AB27B68A3F84020D9
S315000004D07B681A6B7B689A637B685B6B9AB27B68F6
S315000004E0DB6B9BB2D31A9AB27B68A3F842207B6877
S315000004F05A6B7B68DA637B685B889AB27B68DA81C1
S315000005007B689B6CB3F5027F02DB786800F022F90A
S3150000051000BF0837BD4680BD80B586B000AFF86025
S31500000520B9607A607968F86801F03AFD7968B86868
S3150000053001F0ECFF786802F0D1FB7B689B6CB3F5A9
S31500000540027FC0F2F4807B68B3F9A0349BB201331A
S315000005509BB21AB27B68A3F8A0247B6803F62673C5
S315000005601A460621786801F017FB7B68B3F8261F48
S315000005707B68B3F8263F1A46786802F0E7FA7B688C
S3150000058003F2AC417B68B3F8262F0123786801F0AB
S315000005904FF80346FB757B6803F2AC417B68B3F802
S315000005A0262F0023786801F043F80346BB75684B95
S315000005B0DB8DDB089BB28C2B0AD9BA7DFB7D93427F
S315000005C038BF1346DBB29AB27B68A3F8222F09E044
S315000005D0FA7DBB7D934228BF1346DBB29AB27B6895
S315000005E0A3F8222F7B68B3F8223F002B24D07B6828
S315000005F0B3F8263FDB007A68B2F8222F93FBF2F3BA
S315000006009BB25B009AB27B68A3F8242F7B68B3F891
S31500000610243FB3F5946F05D97B684FF49462A3F831
S31500000620242F09E07B68B3F8243FFF2B04D87B68AE
S315000006304FF48072A3F8242F7B68B3F9A034102BF3
S315000006401AD1434B93F82420414B83F82C20404B7E
S31500000650142283F83A207B6803F5805393F86F31B0
S31500000660002B09D03A4B93F84820394B83F8502099
S31500000670374B142283F85E207B68B3F8243F0022B0
S315000006801946002003F000FFB968786802F04AFBBB
S31500000690786800F0DFF87B6803F5805393F86F31D4
S315000006A0002B02D0786800F075F9786800F0D4F96C
S315000006B0786802F0AAFA7B685B8D01221946012050
S315000006C003F0E2FE224BDB8DDB089AB27B68A3F8CF
S315000006D056201F4BDB8D1BB203F00703BB82B7F915
S315000006E01430032B07DD7B68B3F8563001339AB21A
S315000006F07B68A3F856207B6803F5805393F86F3127
S31500000700002B20D07B681B8D00221946022003F0A7
S31500000710BBFE0F4BB3F852301A4613469B001344E8
S315000007205B00DB109AB27B68A3F854200BE07B6871
S315000007300022A3F8AC2E7B680022A3F854207B6825
S315000007400022A3F8562000BF1837BD4680BD00BF63
S31500000750641C002080B485B000AF78607B685B883D
S315000007609AB27B689A810023FB6039E07B6803F5C7
S31500000770805393F86F31002B10D07B689B897A6881
S3150000078003F214635B001344B3F904107A68FB6840
S3150000079003F565735B0013440A469A807B689B8960
S315000007A07A6803F2D4435B001344B3F904107A6801
S315000007B0FB6803F515735B0013440A469A807B6851
S315000007C09B8901339AB27B689A817B689B89B3F5D2
S315000007D0A07F02D17B6800229A81FB680133FB600F
S315000007E0FB68B3F5A07FC1DB00BF00BF1437BD4671
S315000007F05DF8047B704780B487B000AF7860002353
S315000008007B614FF400433B610F23FB607B695A0019
S315000008103B691A44FB68591EF96002FA03F3BB6090
S31500000820BA687B689A4207D87A693B6913447B6148
S315000008307A68BB68D31A7B603B695B083B613B699E
S31500000840002BE3D17B6918461C37BD465DF8047B57
S315000008507047FFFF80B485B000AF78607B689B6906
S315000008604FF4B17202FB03F3DB0807EE903AF8EEA1
S31500000870676A7B68D3F8983F07EE903AB8EEE77A56
S31500000880C6EE877A7B68C3ED087A7B6803F58053EA
S3150000089093F86F31002B21D07B68DB694FF4B1727E
S315000008A002FB03F3DB0807EE903AF8EE676A7B6813
S315000008B0D3F89C3F07EE903AB8EEE77AC6EE877A11
S315000008C07B68C3ED097A7B68D3ED096A7B6893ED93
S315000008D0087AC6EE877A7B68C3ED057A294BDB8DED
S315000008E0DB089BB2782B04D97B68002283F8E82FBB
S315000008F009E0244BDB8DDB089BB26D2B03D87B68AC
S31500000900012283F8E82F7B6893F8E83F012B33D167
S315000009107B68B3F9E43F8C2B02DD8C23FB8103E07B
S315000009207B68B3F8E43FFB817B68D3ED087A9FEDE3
S31500000930167AF4EEC77AF1EE10FA00DC1CE0B7F98D
S315000009400E30452B18DD7B6893ED057AB7F90E302E
S31500000950463B0E4A82FB03125210DB17D31A07EEF0
S31500000960903AF8EEE76A9FED0A6AC6EE867A77EE67
S31500000970677A7B68C3ED057A00BF1437BD465DF81C
S31500000980047B7047641C0020CDCCCC3D398EE33807
S315000009900000C84280B487B000AF78604FF0000313
S315000009A07B612C4A07F1080307CA83E807007B68C6
S315000009B0D3ED057AF5EEC07AF1EE10FA00DC42E0EE
S315000009C097ED027AD7ED036A7B68D3ED057A66EE7A
S315000009D0A77A37EE277AD7ED046A7B68D3ED057AD6
S315000009E066EEA76A7B68D3ED057A66EEA77A77EEA0
S315000009F0277AC7ED057AD7ED057AB2EE007A67EE6B
S31500000A00877AFDEEE77A17EE903A1BB29AB27B68C8
S31500000A101A857B681B8DDB089BB2642B02D87B682A
S31500000A201A8D01E04FF448727B681A857B681B8D2E
S31500000A30DB089BB23B2B02D97B681A8D01E04FF491
S31500000A40F0727B681A8500BF1C37BD465DF8047BD3
S31500000A50704700BF686E080080B582B000AF78604E
S31500000A607B68B3F8E63F1AB27B68A3F850207B6830
S31500000A70B3F8763F012B07D97B68B3F950300022D3
S31500000A801946032003F000FD7B68B3F8241F7B683A
S31500000A90B3F950309BB21A46786800F0FBFF034664
S31500000AA01A467B68A3F8AC2E7B68B3F8AC3E002BE5
S31500000AB00AD07B68B3F8AC3E1A46074BB3FBF2F399
S31500000AC09AB27B685A8502E07B6800225A8500BF8D
S31500000AD00837BD4680BD00BF00DC050080B588B084
S31500000AE000AFF860B9607A603B600023FB750723AE
S31500000AF0BB757B68FA68126A9B1AFB61FB6913F582
S31500000B00004F02DA954BFB6107E0FB6947F2305272
S31500000B10934202DD47F23053FB61BB6803F5805315
S31500000B2093F86F31002B13D03B68FA68526A9B1A10
S31500000B30BB61BB6913F5004F02DA884BBB6107E066
S31500000B40BB6947F23052934202DD47F23053BB6134
S31500000B50BB6893F8203F002B0AD1814B00221A6014
S31500000B60804B00221A60804B00221A700123FB750D
S31500000B70BB6893F8203F072B07D8BB6893F8203F44
S31500000B800133DAB2BB6883F8202FBB6893F8203FA5
S31500000B90082B22D1744B1B781A46744B33F812304B
S31500000BA0BB826F4B1A68B7F91430D31A6C4A1360BC
S31500000BB0BB6803F5805393F86F31002B0DD06A4B59
S31500000BC01B781A466A4B33F81230BB82654B1A689B
S31500000BD0B7F91430D31A634A1360634B1B781A466D
S31500000BE0FB6919B2614B23F812105F4B1B781A464A
S31500000BF05E4B33F912301A46594B1B681344584A58
S31500000C001360BB6803F5805393F86F31002B13D044
S31500000C10554B1B781A46BB6919B2554B23F812106F
S31500000C20514B1B781A46524B33F912301A464D4B2C
S31500000C301B6813444B4A13604B4B1B780133DAB2E3
S31500000C40494B1A70484B1A78BB7D1340DAB2464BB3
S31500000C501A70BB6893F8203F082B17D8404B1B68C7
S31500000C60BA6892F8202F93FBF2F3FB61BB6803F599
S31500000C70805393F86F31002B17D03A4B1B68BA6834
S31500000C8092F8202F93FBF2F3BB610EE0344B1B6806
S31500000C90DB10FB61BB6803F5805393F86F31002BC3
S31500000CA003D0304B1B68DB10BB61FB6919B2BB6814
S31500000CB093F8B22EFB7D002002F050FA2D4BB3F9CB
S31500000CC0EE30FB61BB6803F5805393F86F31002B60
S31500000CD00CD0BB6919B2BB6893F8B22EFB7D01201C
S31500000CE002F03CFA234BB3F9DE31BB61BB685B888B
S31500000CF09BB2FA6911B2BA6803F2D4435B0013449B
S31500000D000A469A80BB6803F5805393F86F31002B2F
S31500000D100BD0BB685B889BB2BA6911B2BA6803F2A2
S31500000D2014635B0013440A469A80BB685B889BB2D7
S31500000D3001339AB2BB685A80BB685B889BB2B3F535
S31500000D40A07F03D2BB685B889AB200E00022BB6832
S31500000D505A8000BF2037BD4680BD00BF0080FFFF20
S31500000D60CC190020D0190020D4190020D819002051
S31500000D70E81900204C1A002080B58AB000AF7860D0
S31500000D806C4BB3F87630002B00F0D0807B6893F87C
S31500000D905A30002B00F0CA807B6893F884311A46DB
S31500000DA07B68D96D7B68183243F8221000237B627A
S31500000DB000233B621AE07B6893F884311A463B6A4B
S31500000DC0D31A7B627B6A002B02DA7B6A49337B6229
S31500000DD07B687A6A183253F8222079683B6A9A331C
S31500000DE09B000B445A603B6A01333B623B6A482BCB
S31500000DF0E1DD7B6893F884310133DAB27B6883F8EE
S31500000E0084217B6893F88431482B0BD97B680022B8
S31500000E1083F884217B68012283F844207B680122C1
S31500000E2083F8282F7B6893F84430002B7ED000236C
S31500000E30FB6178E07A68FB69134403F5D5731B7888
S31500000E40FB720023BB617B680022C3F8B821002334
S31500000E507B6122E00023BB6100233B610DE07A69E0
S31500000E603B6913447A689A339B0013445B68BA69FA
S31500000E701344BB613B6901333B61FB7A3A699A4291
S31500000E80EDDBFB7ABA6992FBF3F17B687A696E3225
S31500000E9043F822107B6901337B617B692C2BD9DDFA
S31500000EA07B6803F5DC73FA7A1146184600F023FBDB
S31500000EB0034619467A68FB69134403F244430A461B
S31500000EC01A700023FB6018E0FB7A5B08DBB21A4657
S31500000ED0FB6813447A689A339B0013445A687B680C
S31500000EE0F9686E3153F82130D11A7B68FA68E4321A
S31500000EF043F82210FB680133FB60FB682C2BE3DD13
S31500000F007B6803F564732D21184600F044FB034605
S31500000F1019467A68FB69134403F249430A461A7074
S31500000F20FB690133FB61FB69042B83DD00BF2837B6
S31500000F30BD4680BD641C002090B58BB002AF7860C2
S31500000F400023FB837B6893F85934002B03D17B681D
S31500000F50312283F859247B6893F84430002B00F043
S31500000F60CE810023BB6148E0BB69D9B27A68BB6910
S31500000F70134403F249431B78DB0018B27B6803F580
S31500000F80C6747B6803F5CB737A6802F5D07201925A
S31500000F90009323460246786800F0B8F97A68BB6980
S31500000FA0134403F244431B78002B1BD07B68BA69B9
S31500000FB0D03233F91230DB00FB607A68BB69134428
S31500000FC003F244431B78BB60FA68BB6892FBF3F3F9
S31500000FD019B27A68BB6903F509735B0013440A46C4
S31500000FE0DA8007E07A68BB6903F509735B0013448E
S31500000FF00022DA80BB690133BB61BB69042BB3DD18
S315000010007B68032283F85824914BB3F89A30782BE7
S3150000101001D9042200E003227B6883F8B42100236F
S315000010207B6125E07A687B6903F509735B001344ED
S31500001030B3F90630002B18DD7A687B6903F509736E
S315000010405B001344B3F906207B6893F8583479683B
S3150000105003F509735B000B44B3F906309A4204DAD0
S315000010607B69DAB27B6883F858247B6901337B613C
S315000010707B6893F8B4311A467B699342D2DD7B686C
S3150000108093F85A34002B0AD17B6893F85934714A85
S31500001090A2FB0323DB08DAB27B6883F85A247B6859
S315000010A093F858341A4613465B0013449B000533E5
S315000010B07A6892F85924934208DB7B6893F859348E
S315000010C00133DAB27B6883F8592416E07B6893F81B
S315000010D0593419467B6893F858341A4613465B0010
S315000010E013449B000633994207DD7B6893F8593415
S315000010F0013BDAB27B6883F859247B6893F859344C
S31500001100544AA2FB0323DB08DAB27B6883F85A242D
S315000011107B6893F85A341A467B68134493F849342B
S31500001120002B17D07B6893F85A341A467B68134411
S3150000113093F849341A464FF43473B3FBF2F27B68E2
S31500001140C3F89C247B68D3F89C34002219460420FB
S3150000115003F09AF93E4BB3F89A30132B40F29D8078
S315000011603B4BB3F89A30B3F5967F00F296807B68D6
S31500001170B3F998341A467B6893F8B5319A420FDA78
S315000011807B68B3F998349BB201339BB21AB27B6881
S31500001190A3F898247B68B3F998242F4B1A802CE087
S315000011A07B6893F8B5311E2B27D02B4BB3F9003053
S315000011B0182B14D17B681E2283F8B5217B68B3F9FE
S315000011C098247B68A3F89A247B68B3F998349BB279
S315000011D001339BB21AB27B68A3F898240DE01E4B2C
S315000011E0B3F90030172B08DC1B4BB3F900309BB268
S315000011F001339BB21AB2184B1A80154BB3F89A20DA
S315000012007B68B3F99A3411B27A6803F50B735B0005
S3150000121013440A469A807B68B3F99A349BB2013329
S315000012209BB21AB27B68A3F89A247B68B3F99A3406
S315000012301A467B6893F8B5319A4203D17B6800223F
S31500001240A3F89A240023FB8300233B6116E000BF2A
S31500001250641C0020ABAAAAAAF81900207A683B6988
S3150000126003F50B735B001344B3F904309AB2FB8B9E
S3150000127013449BB2FB833B6901333B617B68B3F943
S3150000128098341A463B699342E8DBB7F91E307A6810
S31500001290B2F9982493FBF2F3FB83B7F91E30002BC7
S315000012A029D07B684FF4F072C3F888217B68D3F8A5
S315000012B08831642203FB02F27B68C3F888217B68CD
S315000012C0D3F88831104AA2FB03235A097B68C3F876
S315000012D088217B68D3F88831DA007B68C3F88821D7
S315000012E07B68D3F88821B7F91E30B2FBF3F27B682E
S315000012F0C3F8882103E07B680022C3F8882100BF79
S315000013002437BD4690BD00BFCDCCCCCC80B588B0CF
S3150000131000AFF8607B600B46FB7213463B810123EE
S315000013207B8301233B830123FB82FB6893F85B34B9
S31500001330002B14D10023FB610EE0FB695B00BA6A47
S31500001340134400221A80FB695B00FA6A13440022E8
S315000013501A80FB690133FB61FB69042BEDDDFB6839
S3150000136093F85B341A46FB7A42FA03F303F001035F
S31500001370002B14D1FB7A5B007A6813443A891A80F1
S31500001380FB6893F85B345AB2FB7A012101FA03F346
S315000013905BB213435BB2DAB2FB6883F85B24B7F93E
S315000013A00830FA7A520079680A44B2F900209B1A8A
S315000013B0B7F90820F97A490078680144B1F90010B4
S315000013C0521A03FB02F2B7F91A30DA40FB7A5B00D5
S315000013D0F96A0B44B3F900301846FB7A5B00F96AE8
S315000013E00B44B3F9003003FB00F1B7F91A3021FAC8
S315000013F003F313441846FFF7FEF90146FB7A5B0038
S31500001400BA6A13440AB21A80FB7A5B00BA6A1344BA
S31500001410B3F900309AB2FB7A5B00F96A0B44B3F970
S3150000142000309BB2D31A9BB21BB23A8BD2B2114692
S31500001430184600F03DF803461946FB7A5B00FA6A47
S315000014401344B3F900309AB28BB2134499B2FB7AC3
S315000014505B00FA6A13440AB21A80B7F90830002B07
S3150000146022D03A89FB7A5B0079680B44B3F90030E5
S315000014709BB2D31A9BB21BB2FA8AD2B21146184655
S3150000148000F016F803461946FB7A5B007A681344A7
S31500001490B3F900309AB28BB2134499B2FB7A5B006F
S315000014A07A6813440AB21A8000BF2037BD4680BD51
S315000014B080B483B000AF03460A46FB8013467B71B7
S315000014C0B7F90630002B0ADAB7F906305A427B79AB
S315000014D042FA03F39BB25B429BB21BB205E0B7F93B
S315000014E006207B7942FA03F31BB218460C37BD4639
S315000014F05DF8047B704780B487B000AF78600B4618
S31500001500FB700023FB7500233B610023FB60012376
S31500001510BB6035E0BB689B007A6813441A68BB68F9
S3150000152003F18043013B9B0079680B441B689A4298
S3150000153002DD0123FB6011E0BB689B007A6813445F
S315000015401A68BB6803F18043013B9B0079680B4432
S315000015501B689A4202DA4FF0FF33FB60FB68002BF0
S3150000156009D03B69002B06D0FA683B699A4202D043
S31500001570FB7D0133FB75FB683B61BB680133BB60D8
S31500001580FB78BA689A42C5DBFB7D18461C37BD4618
S315000015905DF8047B704780B586B000AF78600B4677
S315000015A0FB700023FB7500233B617B681B681846B4
S315000015B000F042F90346002B05D07B681B681846ED
S315000015C000F03AF938610123FB6028E03B69002B03
S315000015D00ED0FB689B007A6813441B68184600F01F
S315000015E02BF902463B69934202D0FB7D0133FB7522
S315000015F0FB689B007A6813441B68184600F01CF9C8
S315000016000346002B08D0FB689B007A6813441B68CE
S31500001610184600F011F93861FB680133FB60FB786E
S31500001620FA689A42D2DBFB7D18461837BD4680BD64
S3150000163080B58CB000AFF860B96011461A460B460B
S31500001640FB8013467B710023FB850023BB850023AB
S315000016503B83002387F82B30FB68002283F8212F79
S31500001660734BDB8D002B0ED0714BDB8DB3F58C6F7E
S3150000167009D2012387F82B306D4BDB8D4BF6803278
S31500001680B2FBF3F33B85BB681B88FB84002387F81A
S31500001690253001237B8426E07B79002B10D07B8CC0
S315000016A05B00BA681344B3F90030B7F926209A42B2
S315000016B016DA7B8C5B00BA6813441B88FB840FE048
S315000016C07B8C5B00BA681344B3F90030B7F9262067
S315000016D09A4205DD7B8C5B00BA6813441B88FB8449
S315000016E07B8C01337B847A8CFB889A42D4D3B7F9FE
S315000016F026305B004F4A82FB03125210DB17D31AC7
S31500001700FB827B79002B08D0BB68B3F900309AB214
S31500001710FB8AD31A9BB21BB207E0BB68B3F9003051
S315000017209AB2FB8A13449BB21BB2BB820023FB61B5
S31500001730B7F91430184600F07FF80346002B05D0A1
S31500001740B7F91430184600F077F8F86101237B8367
S3150000175062E0B7F91A305B00BA681344B3F9003097
S315000017609AB2FB8AD31A9BB2BB82FB69002B3FD08D
S31500001770B7F91430184600F05FF80246FB69934249
S3150000178036D097F82530013387F8253097F82B3077
S31500001790002B2DD0B7F92E30002B02D17B8BFB8589
S315000017A026E0B7F92C30002B04D1FB8DBB857B8B53
S315000017B0FB851DE07A8BBB8DD31A9BB23B83B7F9B1
S315000017C018303A8D520892B293420DDA97F82530C6
S315000017D0013B87F82530FB6893F8213F0133DAB2E5
S315000017E0FB6883F8212F03E0FB8DBB857B8BFB8594
S315000017F0B7F91430184600F01FF80346002B05D041
S31500001800B7F91430184600F017F8F861B7F91A302E
S315000018109BB201339BB27B83B7F91A20FB889A42AD
S3150000182097DB97F8253018463037BD4680BD00BF98
S31500001830641C00206766666680B483B000AF78607B
S315000018407B68002B02DA4FF0FF3305E07B68002B44
S3150000185001DD012300E0002318460C37BD465DF884
S31500001860047B7047B0B586B000AF87ED010A3860DB
S315000018704FF000037B6100233B610C233B72002386
S31500001880FB60D7ED017AF5EEC07AF1EE10FA40F37F
S31500001890E4807C4B1B780133DAB27A4B1A70794BB1
S315000018A01B780C2B02D9774B0C221A70764B93F9C6
S315000018B00030764A9B0013447A681A60786881F093
S315000018C07BFE04460D4697F90830184645EC104B4A
S315000018D082F07EFC51EC100B6B4B93F900301C46EA
S315000018E082F05CF903461AB2694B23F81420664B62
S315000018F01B78FB72644B93F90030DBB20133DBB229
S315000019005AB2614B1A70604B93F900300C2B02D11E
S315000019105D4B00221A700023BB7226E097F90B304C
S315000019205A4A9B001344D3ED007A97ED057A77EE79
S31500001930277AC7ED057A97F90B30554A32F91330F5
S315000019401A463B6913443B6197F90B30DBB2013B06
S31500001950DBB2FB7297F90B30002B03DAFB7A0C3300
S31500001960DBB2FB72BB7A0133BB72464B1B78BA7A89
S315000019709A42D3D3434B1B7807EE903AB8EEE77AF8
S31500001980D7ED056AC6EE877AC7ED057A3D4B1B781B
S315000019901A463B6993FBF2F33B613B4B93F90030EC
S315000019A0DBB2013BDBB2FB7297F90B30002B03DA9B
S315000019B0FB7A0C33DBB2FB7200237B7226E097F9CD
S315000019C00B30334A32F913301A463B69D31A19469B
S315000019D097F90B302E4A32F913301A463B69D31A5F
S315000019E001FB03F3FA681344FB6097F90B30DBB293
S315000019F0013BDBB2FB7297F90B30002B03DAFB7A63
S31500001A000C33DBB2FB727B7A01337B721D4B1B7886
S31500001A107A7A9A42D3D31B4B1B781A46FB68B3FBE0
S31500001A20F2F3FB60F868FEF7E6FEF860F86881F00E
S31500001A30A1FD04460D4697F908305B42184645EC71
S31500001A40104B82F0C5FB53EC102B1046194682F062
S31500001A50EDF802463B681A600BE07B687B61094B38
S31500001A6000221A70084B00221A703B684FF00002E1
S31500001A701A607B6907EE903AB0EE670A1837BD46E2
S31500001A80B0BD00BFFA190020FB190020FC19002088
S31500001A902C1A002080B485B000AF78600B467B809E
S31500001AA013463B8000237B7300233B73384B5B89D3
S31500001AB0002B01D001237B73354BB3F87630002B16
S31500001AC001D001233B733A7B7B7B1343DBB2002BB4
S31500001AD002D10023FB8154E03B7B002B03D12C4B2E
S31500001AE05B89FB814DE02A4BB3F888305B01284ABD
S31500001AF0B2F8762093FBF2F39AB27B68A3F8AE2E87
S31500001B00234B5B893A88D31A9BB27B81B7F90A309B
S31500001B105B017B81B7F90A301D4A528912B293FBE9
S31500001B20F2F37B81B7F90A30002BB8BF5B429BB258
S31500001B307B81B7F90A30062B01DD00233B733B7B23
S31500001B40002B1BD0124B93F88020124BDB789A4265
S31500001B5007D20F4B93F880300133DAB20C4B83F87F
S31500001B6080207B68B3F9A034092B02DC7B88FB81DB
S31500001B7007E0074BB3F87630FB8102E0044B5B8944
S31500001B80FB81FB8918461437BD465DF8047B704718
S31500001B90641C0020806E080090B48CB000AFF86022
S31500001BA00B467A607B817B89072B02D87B89012BC8
S31500001BB006D87B684FF4A0721A804FF0FF33EFE02F
S31500001BC07B89012202FA03F3FB82FB8AB3F5A07F2D
S31500001BD006D37B684FF4A0721A804FF0FF33DFE024
S31500001BE0FB8AC3F5A07301339AB27B681A8000237F
S31500001BF087F82330C9E00023FB6100237B8315E0CF
S31500001C0097F82320788BF96813469B0013449B01B1
S31500001C10034403F515735B000B44B3F904301A460D
S31500001C20FB691344FB617B8B01337B837A8BFB8AD5
S31500001C309A42E5D30023FB857B89013B012202FA08
S31500001C4003F3BB85FB8A7B8500233B8367E07B89A7
S31500001C50FA6942FA03F33B6197F82320F88DF96895
S31500001C6013469B0013449B01034403F515735B0065
S31500001C700B44B3F904301A46FB699B1AFB6197F8CB
S31500001C802320788DF96813469B0013449B01034477
S31500001C9003F515735B000B44B3F904301A46FB6970
S31500001CA01344FB6197F82320B88DF96813469B000F
S31500001CB013449B01034403F515735B000B44B3F90E
S31500001CC004301A463B69D31A7B627B6AB3F5004F30
S31500001CD002DB47F6FF737B627B6A13F5004F01DA7E
S31500001CE0324B7B6297F82320388B7B6A1CB2F968EB
S31500001CF013469B0013449B01034403F515735B00D5
S31500001D000B4422469A80FB8D0133FB85BB8D013344
S31500001D10BB857B8D01337B853B8B01333B833A8BC4
S31500001D207B681B88013B9A4291DB7B89FA6942FA00
S31500001D3003F33B6197F82320B88DF96813469B009F
S31500001D4013449B01034403F515735B000B44B3F97D
S31500001D5004309AB23B699BB2D31A99B297F8232002
S31500001D607B681B88581E0CB2F96813469B00134407
S31500001D709B01034403F515735B000B4422469A80CE
S31500001D8097F82330013387F82330FB6803F5805337
S31500001D9093F86F3197F823209A427FF62CAF0023F1
S31500001DA018463037BD4690BC704700BF0080FFFF25
S31500001DB080B485B000AF78600023FB73B4E0FB7B92
S31500001DC07A6803F5FD635B00134400225A80FB7BAF
S31500001DD07A6803F2CA339B00134400225A60FB7BE5
S31500001DE07A6803F5F3635B00134400229A80FA7B5A
S31500001DF07B6802F2CE32002143F82210FA7B7B6820
S31500001E0002F5F462002123F81210FB7B7A6803F5D1
S31500001E1074739B00134400225A60FB7B7A6803F2BA
S31500001E20A4735B00134400229A80FA7B7B6802F558
S31500001E307572002143F82210FA7B7B6802F5F66280
S31500001E40002123F81210FA7B7B6802F2D6320021B9
S31500001E5043F822100023BB730CE0F97BBA7B7B6846
S31500001E6049000A4402F2B472002123F81210BB7B27
S31500001E700133BB73BB7B012BEFD9FB7B7A6803F580
S31500001E80F6635B00134400229A80FB7B7A68134456
S31500001E90002283F8742FFB7B7A681344002283F8B0
S31500001EA0792FFB7B7A681344002283F87B2FFA7B19
S31500001EB07B6802F2E232002143F822107B68EF22AF
S31500001EC083F8942FFA7B7B6802F2E632002143F80E
S31500001ED02210FB7B7A681344002283F8742FFB7B65
S31500001EE07A681344002283F8D82FFB7B7A68134460
S31500001EF0002283F8DA2F00237B730FE0FA7B787BCE
S31500001F00796813465B0013445B00034403F57A7358
S31500001F10002241F823207B7B01337B737B7B052BDF
S31500001F20ECD9FB7B0133FB737B6803F5805393F895
S31500001F306F31FA7B9A427FF642AF7B680022C3F884
S31500001F40902F7B68002283F8782F7B68002283F825
S31500001F50D02F7B68002283F8D62F7B68282283F84F
S31500001F607D2F7B68002283F8D72F7B680022A3F899
S31500001F70762F7B680022C3F8E02F7B680022C3F827
S31500001F80DC2F7B680022A3F8E42F7B680022A3F8ED
S31500001F90E62F00BF1437BD465DF8047B7047FFFF90
S31500001FA090B58DB000AF786039604023BB763B6852
S31500001FB093F87D2F3B6883F8D72F0023FB6000231F
S31500001FC03B613B68002283F8752F3B68002283F84B
S31500001FD0742FA44B5B89002B23D0A24B5B89DB08B3
S31500001FE09BB21A4613465B0013449F4A82FB0312B8
S31500001FF05210DB17D31ADAB23B6883F87D2F3B68A1
S3150000200093F87D3F0B2B03D83B680C2283F87D2F7A
S315000020103B6893F87D3F402B03D93B68402283F809
S315000020207D2F3B685B889BB203F58C737B857B8D2C
S31500002030B3F5A07F03D37B8DA3F5A0737B853B68A7
S315000020405B889AB23B6893F9943F9BB2D31A9BB2D2
S3150000205003F21713FB85FB8DB3F5A07F03D3FB8D2E
S31500002060A3F5A073FB85BB7E5B08DBB29AB2FB8D42
S3150000207013449BB20133BB85BB8DB3F5A07F03D35D
S31500002080BB8DA3F5A073BB85002387F823300023FF
S3150000209087F8223024E13B6893F9943F1A46BB7EC9
S315000020A09A4209DA3B6893F9943FDBB20133DBB21B
S315000020B05AB23B6883F8942F3B6893F9943F1A46CB
S315000020C0BB7E9A4240F0C5803B68D3F8903F5A1CCD
S315000020D03B68C3F8902F97F82330013387F82330F5
S315000020E0002387F8213088E097F821203B6802F228
S315000020F0E23253F822309B117B6197F82120B88D8C
S31500002100396813469B0013449B01034403F2D443EE
S315000021105B000B44B3F904301A467B69D31A7B6221
S3150000212097F821203B6802F2E23253F8221097F822
S3150000213021207C8D386813469B0013449B01234461
S3150000214003F2D4435B000344B3F9043097F821202B
S3150000215019443B6802F2E23243F8221097F8212034
S315000021603B6802F2E23253F8221097F82120FC8DE8
S31500002170386813469B0013449B01234403F2D4435F
S315000021805B000344B3F9043097F82120C91A3B6871
S3150000219002F2E23243F822107B6AB3F5004F02DB0B
S315000021A047F6FF737B627B6A13F5004F01DA2F4B0C
S315000021B07B6297F821307A6A11B23A6803F5FD63BB
S315000021C05B0013440A465A8097F821309B0030334F
S315000021D03B4453F8243C1A467B6A002BB8BF5B424B
S315000021E01A4497F821309B0030333B4443F8242CA3
S315000021F097F82130013387F821303B6803F5805387
S3150000220093F86F3197F821209A427FF66DAFFB8DD8
S315000022100133FB85FB8DB3F5A07F03D1FB8DA3F5C1
S31500002220A073FB85BB8D0133BB85BB8DB3F5A07F4A
S3150000223003D3BB8DA3F5A073BB857B8D01337B8553
S315000022407B8DB3F5A07F3DD37B8DA3F5A0737B85F6
S3150000225038E03B6893F9943F002B33DB002387F883
S3150000226020302BE0641C0020676666660080FFFF56
S3150000227097F820203B6802F2E23253F8221097F8D2
S315000022802020788D97F82230C418386813469B00B2
S3150000229013449B01234403F2D4435B000344B3F984
S315000022A0043097F8202019443B6802F2E23243F8E2
S315000022B0221097F82030013387F8203097F8203025
S315000022C0012BD5D9386800F055F93B6893F87D2F76
S315000022D03B6883F8D72F97F82230013387F82230EE
S315000022E097F82230272B7FF6D6AE3B680022A3F85C
S315000022F0842F0023FB770023BB771DE0BB7F3A6862
S3150000230003F2BC735B001344DB88002B02D1FB7F16
S315000023100133FB773B68B3F8842FBB7F396803F240
S31500002320BC735B000B44DB8813449AB23B68A3F88A
S31500002330842FBB7F0133BB773B6893F8743FBA7F2A
S315000023409A42DBD33B6893F8743F1A46FB7FD31A55
S31500002350002B4EDD3B68B3F8763F012B49D93B682D
S31500002360B3F8843FDB003A6892F8742F91B2FA7F93
S3150000237092B28A1A92B293FBF2F39AB23B68A3F82E
S31500002380E62F3B68012283F85A203B680022A3F817
S31500002390642F00237B7713E03B68B3F9643F9AB25E
S315000023A0797F3B6801F2B47133F911309BB2134463
S315000023B09BB21AB23B68A3F8642F7B7F01337B770D
S315000023C03B6893F8743F7A7F9A42E5D33B68B3F94A
S315000023D0643F1A463B6893F8743F92FBF3F31AB2D4
S315000023E03B68A3F8642F3B68B3F9643F1A463B6821
S315000023F0DA653B6803F5805393F86F31002B37D0CD
S315000024003B6893F8753F002B32D03B68B3F8763FB4
S31500002410012B2DD93B680022A3F8662F00233B77BA
S3150000242013E03B68B3F9663F9AB2397F3B6801F225
S31500002430B67133F911309BB213449BB21AB23B68A2
S31500002440A3F8662F3B7F01333B773B6893F8753FD4
S315000024503A7F9A42E5D33B68B3F9663F1A463B6832
S3150000246093F8753F92FBF3F31AB23B68A3F8662F15
S315000024703B6893F9943F1A46BB7E9A4241D10023AA
S31500002480FB7618E0FB7E9B0030333B4453F8241C5C
S31500002490FA7E3B6893F8D03F1C46084639681346D7
S315000024A05B0013445B00234403F57A7341F8230071
S315000024B0FB7E0133FB763B6803F5805393F86F315F
S315000024C0FA7E9A42DED93B6893F8D63F052B07D8A9
S315000024D03B6893F8D63F0133DAB23B6883F8D62FD0
S315000024E03B6893F8D03F0133DAB23B6883F8D02FCC
S315000024F03B6893F8D03F062B03D13B68002283F854
S31500002500D02F00BF3437BD4690BD00BF80B485B024
S3150000251000AF786039603B6893F9943F402B22D135
S315000025200023FB7317E0FA7B3B6802F2E23253F8B2
S3150000253022309B111946FA7B7B68083253F8223009
S315000025400B44FA7B19463B6802F2E63243F8221046
S31500002550FB7B0133FB733B6803F5805393F86F31C4
S31500002560FA7B9A42DFD900BF1437BD465DF8047B7B
S315000025707047FFFF90B484B000AF78600023BB8142
S315000025800323FB727B68D3F8903F012B40F2C6828F
S315000025900023FB73B8E2FB7B7A68134493F8793F18
S315000025A0002B41D07B68D3F8902FFB7B796803F230
S315000025B0CA339B000B445B68D31A7A6892F87D2F66
S315000025C0934231D97B6893F87D2F7B6893F8D73F88
S315000025D09A4223D27B68D3F8902FFB7B796803F26B
S315000025E0CA339B000B445B68D31A7A6892F8D72FDC
S315000025F093420CD2FB7B7A681A4492F8792F013207
S31500002600D1B27A6813440A4683F8792F0CE0FB7B33
S315000026107A681344002283F8792F05E0FB7B7A68F9
S315000026201344002283F8792FFB7B7A6803F5FD6358
S315000026305B001344B3F90220FB7BB14931F9133037
S315000026409A424DDDFB7B7A68134493F8793F002B61
S3150000265011D0FB7B7A6803F5FD635B001344B3F985
S315000026600220FB7B796803F5F3635B000B44B3F947
S3150000267004309A4227DDFB7B7A681344002283F8F4
S31500002680D82F7B68D3F8902FFB7B11467A6803F22C
S31500002690CA339B0013445960FB7BF97B7A6803F5C8
S315000026A0FD635B001344B3F902007A6801F5F36336
S315000026B05B00134402469A80FB7B7A68134401222E
S315000026C083F8792F18E0FB7B7A681A4492F8792F01
S315000026D00132D1B27A6813440A4683F8792F0BE0A7
S315000026E0FB7B7A681A4492F8792F0132D1B27A6864
S315000026F013440A4683F8792FFB7B7A68134493F8D0
S31500002700792F7B6893F87D3F9A425BD3FB7B7A688F
S31500002710134493F8D83F002B54D1FB7B7A681344BB
S31500002720012283F8D82FFB7BF87B7A6803F2CA3341
S315000027309B0013445A68796800F574739B000B4438
S315000027405A60FB7BF97B7A6803F5F3635B001344FD
S31500002750B3F904007A6801F2A4735B0013440246DD
S315000027609A80FB7B674A0121D154FB7B002B29D140
S315000027707B68D3F8E03F002B0CD1FB7B7A6803F231
S31500002780A4735B001344B3F904301A467B68C3F89C
S31500002790E02F17E07B68D3F8E02FFB7B796803F224
S315000027A0A4735B000B44B3F9043019467B68D3F875
S315000027B0E03FC91A97F90B3041FA03F31A447B68D4
S315000027C0C3F8E02FFB7B7A68134493F87B3F002B1A
S315000027D03FD07B68D3F8903FF97B7A6801F2CE311F
S315000027E052F821209B1A7A6892F87D2F934230D9AD
S315000027F07B6893F87D2F7B6893F8D73F9A4222D265
S315000028007B68D3F8903FF97B7A6801F2CE3152F8B3
S3150000281021209B1A7A6892F8D72F93420CD2FB7B21
S315000028207A681A4492F87B2F0132D1B27A6813443F
S315000028300A4683F87B2F0CE0FB7B7A681344002260
S3150000284083F87B2F05E0FB7B7A681344002283F82C
S315000028507B2FFB7B7A6803F5FD635B001344B3F9BA
S315000028600220FB7B264931F913309A424CDAFB7B76
S315000028707A68134493F87B3F002B0FD0FB7B7A6872
S3150000288003F5FD635B001344B3F90220F97B7B6813
S3150000289001F5F46133F911309A4224DAFB7B7A6848
S315000028A01344002283F8DA2F7B68D3F8903FFA7B33
S315000028B019467B6802F2CE3243F82210FB7BFA7B84
S315000028C0796803F5FD635B000B44B3F902107B687E
S315000028D002F5F46223F81210FB7B7A681344012296
S315000028E083F87B2F1CE0FB7B7A681A4492F87B2FD7
S315000028F00132D1B27A6813440A4683F87B2F0FE07F
S31500002900441A0020481A0020FB7B7A681A4492F881
S315000029107B2F0132D1B27A6813440A4683F87B2FA3
S31500002920FB7B7A68134493F87B2F7B6893F87D3F93
S315000029309A42C0F0DA80FB7B7A68134493F8DA3F58
S31500002940002B40F0D280FB7B7A681344012283F887
S31500002950DA2FF97BFA7B7B6801F5757153F8211044
S315000029607B6802F2D63243F82210F97BFA7B7B6849
S3150000297001F2CE3153F821107B6802F5757243F8E7
S315000029802210F97BFA7B7B6801F5F46133F91110AB
S315000029907B6802F5F66223F81210FB7B694AD35C6A
S315000029A0012B40F0A280FB7B002B44D17B68B3F85F
S315000029B0763F012B07D87B68B3F8763F01339AB28E
S315000029C07B68A3F8762F7B68B3F8763F012B32D964
S315000029D0FA7B7B6802F5757253F822309AB2F97B5E
S315000029E07B6801F2D63153F821309BB2D31A9BB2E1
S315000029F0BB81B7F90C30942B11DCB7F90C301F2BC7
S31500002A000DDDFB7B7A68134493F8743FB9897A68C5
S31500002A1003F2BC735B0013440A46DA800BE0FB7BCF
S31500002A207A68134493F8743F7A6803F2BC735B00C8
S31500002A3013440022DA80FB7B7A6803F2A4735B00FE
S31500002A401344B3F904309AB2F97B7B6801F5F66159
S31500002A5033F911309BB2D31A9CB2FA7BFB7B7968AF
S31500002A600B4493F8743F184621B27B685200024427
S31500002A7002F2B47223F81210FB7B7A681A4492F8B9
S31500002A80742F0132D1B27A6813440A4683F8742F40
S31500002A90FB7B002B25D17B68D3F8DC3F002B0AD1CA
S31500002AA0FA7B7B6802F5F66233F912301A467B68C8
S31500002AB0C3F8DC2F15E07B68D3F8DC2FF97B7B6845
S31500002AC001F5F66133F9113019467B68D3F8DC3F1E
S31500002AD0C91A97F90B3041FA03F31A447B68C3F815
S31500002AE0DC2FFB7B174A0021D154FB7BFA7B7968EC
S31500002AF003F5FD635B000B44B3F90210124B23F898
S31500002B001210FB7B0133FB737B6803F5805393F84C
S31500002B106F31FA7B9A427FF63EAD0EE07B68D3F8C2
S31500002B20903F012B09D17B68B3F9D22F064B1A804F
S31500002B307B68B3F9D42F044B5A8000BF1037BD46CB
S31500002B4090BC7047481A0020441A002080B487B011
S31500002B5000AF78600B467B8013463B803B88002B9A
S31500002B604DD03A887B889A4249D87B88002B46D03C
S31500002B703B88002B43D07A883B88D31A5B10BB81F5
S31500002B80BA893B8813447B810023FB752EE0002322
S31500002B903B61BB89FB8118E0FA7DF88979681346A9
S31500002BA09B0013449B01034403F515735B000B4420
S31500002BB0B3F90430002BB8BF5B429BB21A463B699F
S31500002BC013443B61FB890133FB81FA897B899A4275
S31500002BD0E2D33B69D9003B88FA7DB1FBF3F17B6810
S31500002BE0063243F82210FB7D0133FB757B6803F543
S31500002BF0805393F86F31FA7D9A42C8D900E000BF3E
S31500002C001C37BD465DF8047B704780B483B000AFC7
S31500002C1078607B6893F8B23E002B0FD17B68B3F8DF
S31500002C20AC3EB3F5C87F04D27B68042283F8B22E8B
S31500002C304EE07B68082283F8B22E49E07B6893F861
S31500002C40B23E082B1FD17B68B3F8AC3EB3F5C87F04
S31500002C5019D27B6893F81F3F0133DAB27B6883F899
S31500002C601F2F7B68002283F81E2F7B6893F81F3F77
S31500002C70042B2DD97B68042283F8B22E7B680022B0
S31500002C8083F81F2F24E07B6893F8B23E042B1FD1F4
S31500002C907B68B3F8AC3EB3F5DE7F19D97B6893F851
S31500002CA01E3F0133DAB27B6883F81E2F7B68002251
S31500002CB083F81F2F7B6893F81E3F042B08D97B6887
S31500002CC0082283F8B22E7B68002283F81E2FFFE7C6
S31500002CD000BF0C37BD465DF8047B704780B483B0F7
S31500002CE000AF78607B68D3F8E03F002B14DD7B688B
S31500002CF0D3F8DC3F002B0FDA7B68D3F8DC3F002BE0
S31500002D00B8BF5B429A017B68D3F8E03F92FBF3F3CE
S31500002D101AB27B68A3F8E42F00BF0C37BD465DF8F6
S31500002D20047B704790B587B000AF78603960782330
S31500002D303B617823FB600023FB7562E0FB7D9B0013
S31500002D4018333B4453F80C3C5B001946FA7D7B680C
S31500002D50063253F8223099421CD9FB7D9B0018336A
S31500002D603B4453F80C3C1946FB7D9B0018333B440F
S31500002D7053F80C3C5B001846FA7D7B68063253F824
S31500002D802230C31A5B08CA1AFB7D9B0018333B44EA
S31500002D9043F80C2CFB7D9B0018333B4453F80C3C4A
S31500002DA0002B06DAFB7D9B0018333B44002243F8D8
S31500002DB00C2CFA7D7B68063253F822301946FA7DD0
S31500002DC07B68063253F8223003FB01F2FB7D9B0041
S31500002DD018333B4453F80C1CFB7D9B0018333B44D3
S31500002DE053F80C3C01FB03F3D31AFC7D1846FDF7A0
S31500002DF002FD01467B68A21D43F82210FB7D0133CC
S31500002E00FB757B6803F5805393F86F31FA7D9A4220
S31500002E1094D900BF00BF1C37BD4690BD80B485B0B5
S31500002E2000AF0346FB80FB88002B1DD0FB88124AAF
S31500002E30A2FB0323DB08FB81FB891A465203D21A45
S31500002E409200D31A5B009AB2FB881344BB81BB89FC
S31500002E50042B02D9FB890133FB81FB89642B01D941
S31500002E606423FB81FB8900E0FB8818461437BD46C6
S31500002E705DF8047B704700BFCDCCCCCC80B586B066
S31500002E8000AFF860B9607A600023FB827868FDF7CE
S31500002E900BFBFB68022283F854207A68B968F8684D
S31500002EA0FDF73AFB7B68D3ED087A7B6803F2A4430F
S31500002EB01846B0EE670AFEF7D5FCF0EE407A7B685E
S31500002EC003F59563C3ED007A7868FDF755FF7868DA
S31500002ED0FEF732F87B68D3F88831DB08FB827B6823
S31500002EE0FA8AA3F8B02E7968F86800F005F800BFF2
S31500002EF01837BD4680BDFFFF80B483B000AF786051
S31500002F0039603B689B69002B00F0D4803B68D3EDA9
S31500002F10087AF5EEC07AF1EE10FA00DCCAE03B68FA
S31500002F209B69DB08182B0ED97B689B6CB3F5FA5F9F
S31500002F3009D33B68D3ED087A9FED617AF4EEC77A40
S31500002F40F1EE10FA26D53B6803F5805393F86C3101
S31500002F500133DAB23B6803F5805383F86C213B6892
S31500002F6003F5805393F86C310A2B06D93B6803F5B9
S31500002F708053012283F86E218BE03B6803F5805372
S31500002F80002283F86E213B6803F58053002283F804
S31500002F906D217EE03B68D3ED087A9FED4A7AF4EE28
S31500002FA0C77AF1EE10FA3AD53B6803F2A44393EDE3
S31500002FB0007A3B68D3ED087ADFED436A67EEA67ABE
S31500002FC0B4EEE77AF1EE10FA12DD3B6803F58053B2
S31500002FD093F86D310133DAB23B6803F5805383F819
S31500002FE06D213B6803F58053022283F86E2150E081
S31500002FF03B68B3F9A034062B4BDD3B689B69DB08C5
S31500003000192B46D93B6803F58053002283F86D21BE
S315000030103B6803F58053002283F86E2139E03B6854
S3150000302003F2A44393ED007A3B68D3ED087AF5EEFC
S31500003030006A67EEA67AB4EEE77AF1EE10FA12DDD0
S315000030403B6803F5805393F86D310133DAB23B6880
S3150000305003F5805383F86D213B6803F58053032203
S3150000306083F86E2115E03B68B3F9A034062B10DD1A
S315000030703B689B69DB08192B0BD93B6803F580532A
S31500003080002283F86E213B6803F58053002283F803
S315000030906D213B6803F5805393F86D31192B09D9DF
S315000030A07B68012283F8FE203B6803F580530422E7
S315000030B083F86E2100BF0C37BD465DF8047B704770
S315000030C00AD7233DCDCCCC3D9A99193E80B483B026
S315000030D000AF03460A46FB711346BB71FB79012B11
S315000030E033D8FA791C4913461B019B1A1B010B4462
S315000030F0C8334FF0FF321A60FA79174913461B019D
S315000031009B1A1B010B44EC334FF6FF721A80FA79B7
S31500003110114913461B019B1A1B010B44C433BA7990
S315000031201A70FA790C4913461B019B1A1B010B44B2
S31500003130C533BA791A70FA79074913461B019B1AE7
S315000031401B010B444FF6FF721A8000BF0C37BD46B9
S315000031505DF8047B704700BF4C1A0020B0B58CB0F8
S3150000316000AF0446084611461A462346FB7103463D
S31500003170BB800B46BB711346FB70FA798C4913462C
S315000031801B019B1A1B010B44C5331B78BA799A4263
S3150000319002D1FB78012B05D1BA79FB791146184685
S315000031A0FFF794FFFA79824913461B019B1A1B010C
S315000031B00B44C4331B789BB25B009BB2013B9BB2B2
S315000031C07B84FA797A4913461B019B1A1B010B442F
S315000031D0C8331B68B3F1FF3F1FD1764B01221A702B
S315000031E005E0744B1B780133DAB2724B1A70FA7928
S315000031F06F4913461B019B1A1B010B44C4331B78F2
S315000032001A466C4B1B7842FA03F3002BE9D1694B43
S315000032101B78013BDAB2684B1A70FA796449134697
S315000032201B019B1A1B010B44C8331B68591C6048C1
S3150000323013461B019B1A1B010344C8331960FA7914
S315000032405B4913461B019B1A1B010B44B3F9003063
S315000032509BB201339BB218B2554913461B019B1A08
S315000032601B010B4402461A80FA79514913461B0189
S315000032709B1A1B010B44B3F90010FA797B8C0B40A7
S3150000328018B24B4913461B019B1A1B010B440246FD
S315000032901A80FA79464913461B019B1A1B010B44F7
S315000032A0EE3300221A800023FB62FA794049134666
S315000032B01B019B1A1B010B44C8331A68B7F922304D
S315000032C09A4221DCFA793A4913461B019B1A1B01E3
S315000032D00B44C8331B68002B0AD0FA7934491346CD
S315000032E01B019B1A1B010B44CC33B3F9002001E0F0
S315000032F0B7F90420F9792E480B461B015B1A1B010E
S315000033000344EE331A807BE1FA79294913461B01FF
S315000033109B1A1B010B44B3F9003087F82130FA7968
S31500003320234913461B019B1A1B010B44B3F90030BA
S31500003330D9B2FA791E4813461B019B1A1B01034496
S31500003340C4331B780B4487F820307B8C5AB297F92C
S31500003350203013405BB287F82030FA7997F82110B5
S31500003360134813461B019B1ADB000B4464335B00B6
S315000033700344B3F90430BB82FA7997F820100C485D
S3150000338013461B019B1ADB000B4464335B000344AA
S31500003390B3F90430FB82BB883B8307F1080207F1CF
S315000033A014031146184600F04BF90023BB6227E0D0
S315000033B04C1A00202C1C00202D1C0020F979FA79CB
S315000033C09C4813461B019B1A1B010344B3F90030AA
S315000033D01D46BB6A9B0030333B4453F8280C954C82
S315000033E02A4652002A440B461B015B1A9B001A44CC
S315000033F0BB6A13449B0023445860BB6A0133BB621B
S31500003400BB6A022BDADDFA798A4913461B019B1A3D
S315000034101B010B44EC33B3F90030B7F922209A4272
S3150000342016DDFA79834913461B019B1A1B010B44CF
S31500003430EC33B3F900309BB201339BB218B27D492D
S3150000344013461B019B1A1B010B44EC3302461A80E0
S31500003450FA79784913461B019B1A1B010B44C833A2
S315000034601B68591CFA79734813461B019B1A1B01EA
S315000034700344C4331B789B00994220DAF979FA7920
S315000034806C4813461B019B1A1B010344B3F9003019
S315000034901C46FA7967480B461B015B1ADB0023447E
S315000034A064335B000344B3F90400624913461B010D
S315000034B09B1A1B010B44EE3302461A80A0E0002340
S315000034C07B627BE0FA795B4913461B019B1A1B0161
S315000034D00B44C4331B789AB27B6A9BB2D31A9BB255
S315000034E0013B9BB2FB83FA79524913461B019B1A97
S315000034F01B010B441B88BB83BB8B01339BB2BB8375
S315000035007B6A9AB2BB8B13449BB2BB83BA8B7B8C10
S315000035101340BB83F979B7F91C3046481A46520066
S315000035201A4493001A460B461B015B1A1B011344EF
S31500003530034404331B68B7F91E20B7F91E1001FBBC
S3150000354002F202FB03F33C4A127813413A4A12781C
S315000035501341FA6A1344FB62F979B7F91C3035480E
S315000035601A4652001A4493001A460B461B015B1A70
S315000035701B011344034408331B68B7F91E2002FBE2
S3150000358003F32D4A12781341FA6A1344FB62F97960
S31500003590B7F91C3027481A4652001A4493001A46B7
S315000035A00B461B015B1A1B01134403440C331B68B7
S315000035B0FA6A1344FB627B6A01337B62FA791D491E
S315000035C013461B019B1A1B010B44EC33B3F9003065
S315000035D01A467B6A93427FF775AF184B1B781A46DB
S315000035E0FB6A1341FB62FB6ADB10FA7918B21149D8
S315000035F013461B019B1A1B010B44EE3302461A802D
S31500003600FA79F9790B480B461B015B1A1B01034437
S31500003610B3F900301846074913461B019B1ADB0015
S31500003620034464335B000B44BA889A8000BF30378A
S31500003630BD46B0BD4C1A00202D1C00202C1C0020BD
S3150000364080B483B000AF786039607B680233B3F929
S3150000365000301A463B680833D2001A607B68B3F91B
S315000036600030DA007B680433B3F90030DB001A441B
S315000036703B6808331B685B00D31A5A103B681A6014
S315000036807B680433B3F90030DA007B68B3F90030A5
S31500003690DB00D21A3B68043352101A6000BF0C37A5
S315000036A0BD465DF8047B704780B483B000AF034627
S315000036B0FB71044AFB79137000BF0C37BD465DF8F9
S315000036C0047B70472E1C002080B582B000AF80239B
S315000036D03B713A1D01231521A62003F0DFFE0121CF
S315000036E042F210707EF062FD00BF0837BD4680BD15
S315000036F080B582B000AF3A1D02230021A62003F058
S3150000370077FE3B791B021AB27B791BB213431BB2BD
S315000037109BB218460837BD4680BD80B584B000AF61
S31500003720786008233B737B68DA797B681B7A1343DE
S31500003730DBB27B7307F10C0202231521A62003F0EE
S31500003740ADFE00BF1037BD4680BD80B584B000AF6A
S31500003750786000233B737B689A7A7B68DB7A134335
S31500003760DAB27B681B7B1343DBB27B732223BB730A
S3150000377007F10C0203232B21A62003F08FFE00BFC6
S315000037801037BD4680BD80B584B000AF78607B68D9
S315000037901B88DBB23B737B681B881B0A9BB2DBB2C0
S315000037A07B737B685B88DBB2BB737B685B881B0AB9
S315000037B09BB2DBB2FB7307F10C0204231E21A62089
S315000037C003F06CFE00BF1037BD4680BD80B584B0E7
S315000037D000AF78607B68DB89DBB23B737B68DB8993
S315000037E01B0A9BB2DBB27B7307F10C020223172183
S315000037F0A62003F053FE00BF1037BD4680BD80B53E
S3150000380084B000AF78607B681B8ADBB23B737B6851
S315000038101B8A1B0A9BB2DBB27B737B685B8ADBB2BB
S31500003820BB737B685B8A1B0A9BB2DBB2FB7307F137
S315000038300C0204233021A62003F030FE00BF10370F
S31500003840BD4680BD80B584B000AF78607B681B7DC7
S315000038501B015BB243F00A035BB2DBB23B7304238A
S315000038607B7307F10C0202232E21A62003F016FE1D
S3150000387000BF1037BD4680BD80B584B000AF78600C
S315000038807B681B7943F00A03DBB23B737B689B7949
S3150000389043F03003DBB27B7307F10C0202233521C0
S315000038A0A62003F0FBFD00BF1037BD4680BD80B5E6
S315000038B084B000AF78607B681B7E3B737B685B7E61
S315000038C07B7307F10C0202234221A62003F0E6FDDA
S315000038D000BF1037BD4680BD80B584B000AF7860AC
S315000038E01C233B7307F10C0201233721A62003F0AA
S315000038F0D5FD00BF1037BD4680BD80B584B000AF92
S3150000390078607B68DB793B7307F10C020123162193
S31500003910A62003F0C3FD00233B7300237B73002323
S31500003920BB7307F10C0203233821A62003F0B6FD72
S31500003930FFF7DEFE7B68DA797B681B7A1343DBB21E
S315000039403B7307F10C0201231621A62003F0A6FD06
S3150000395000BF1037BD4680BD80B584B000AF78602B
S31500003960FFF7B2FE7868FFF731FF1A233B73152382
S315000039707B7307F10C0202231921A62003F08EFDAA
S315000039807868FFF700FF7868FFF75CFF7B68012225
S315000039901A727B680022DA717868FFF7D6FE7868BB
S315000039A0FFF7BBFE00BF1037BD4680BD80B584B0B3
S315000039B000AF7860FFF788FE7B6800221A7378688C
S315000039C0FFF7C3FE07F10C0201232C21A62003F00A
S315000039D00FFD7868FFF736FF7868FFF710FF786805
S315000039E0FFF74AFF7868FFF777FF7B680222DA71F4
S315000039F07868FFF792FE00BF1037BD4680BD80B5E0
S31500003A0084B000AF7860FFF75FFE7B6800221A7310
S31500003A107868FFF79AFE07F10C0201232C21A620F5
S31500003A2003F0E6FC7868FFF70DFF7868FFF7E7FE1E
S31500003A307868FFF721FF7868FFF74EFF7B6804225E
S31500003A40DA717868FFF769FE00BF1037BD4680BDA2
S31500003A5080B483B000AF786039603B6802337A681F
S31500003A6013441B781B0403F440323B680133796826
S31500003A700B441B781B0213433A6879680A44127890
S31500003A80134318460C37BD465DF8047B704780B576
S31500003A9082B000AF7860396003233A683821A620E7
S31500003AA003F0A6FC3B681A787B685A753B685A781F
S31500003AB07B689A753B689A787B68DA7500BF083729
S31500003AC0BD4680BD80B586B000AFF860B9607A604B
S31500003AD0B968F868FFF7DBFFFB685B7DFB75FB6881
S31500003AE05A7DFB689B7D9A4202D8FB7D2033FB758D
S31500003AF0FB689B7DFA7DD31AFB757B68FA7D1A708D
S31500003B007B680133FA7D5208D2B21A707B680233A1
S31500003B10BA6892781A7000BF1837BD4680BD80B566
S31500003B2082B000AF03463960FB71FB791A4652003A
S31500003B301344DBB25BB23A683B21A62003F058FC83
S31500003B4000BF0837BD4680BD90B587B000AF0346BD
S31500003B50B9607A60FB7300237B610FE07A691346D4
S31500003B605B0099187B699B007A68D418B868FFF7E0
S31500003B706FFF034623607B6901337B61FB7B7A69B8
S31500003B809A42EBDB00BF00BF1C37BD4690BDFFFF6E
S31500003B9080B48BB000AFF860B96011461A460B4688
S31500003BA0FB711346BB7141F270737B6247F230536F
S31500003BB03B620423FB83A04B1B687B610823BB830A
S31500003BC0BB79002B06D1FB6804221A86FB6801220A
S31500003BD083F82920FA79FB68083253F82230002B43
S31500003BE009D1FA79FB6808324FF4403143F82210C4
S31500003BF0FB6801221A77FA79FB68083253F82230FB
S31500003C00B3F5404F03D14FF4B0437B621EE0FA791F
S31500003C10FB68083253F82230DB00FA79002A02D01A
S31500003C20FA68528A01E0FA68128AB3FBF2F3BB61C2
S31500003C30BB6941F27072934238BF13467B627B6A5E
S31500003C40B3F5B04F02D94FF4B0437B62FA79FB6803
S31500003C50083253F82220FB79F96814335B000B44D1
S31500003C60DB88F98B994201D23B6A00E07B6AD31A62
S31500003C70BA689A4280F08D80FA79FB68083253F868
S31500003C8022203B6AD31ABA689A4206D2FB79FA68AE
S31500003C9014335B0013440022DA80FB79002B03D037
S31500003CA0FB685B8A1A4602E0FB681B8A1A46BB8BD6
S31500003CB01A44FB795B0028333B4433F8143C9A42A0
S31500003CC016DAFB79002B07D0FB685A8ABB8B1344A4
S31500003CD09AB2FB685A8206E0FB681A8ABB8B1344C9
S31500003CE09AB2FB681A82FB68012283F82C20CBE18A
S31500003CF0FA79FB68083253F822201346DB00134496
S31500003D004E4A934214D9FA79FB68083253F82220B6
S31500003D101346DB001344FA794949A1FB0313D9087A
S31500003D20FB68083243F82210FB6801221A7728E064
S31500003D30FB79012B1BD1FA79FB68083253F8223044
S31500003D40B3F5404F13D1FB681B7D022B19D8FB68D6
S31500003D501B7D0133DAB2FB681A75FB6801225A77BC
S31500003D60FB680022DA85FB6800221A8609E0FA79E8
S31500003D70FB6808324FF4404143F82210FB680122E9
S31500003D801A77FB79FA6814335B0013440022DA8051
S31500003D907AE1FA79FB68083253F82220FB79F96850
S31500003DA014335B000B44DB88F98B994201D23B6AE2
S31500003DB000E07B6A1344BA689A4240F23881FA7985
S31500003DC0FB68083253F822203B6A1344BA689A42C9
S31500003DD006D9FB79FA6814335B0013440022DA80B3
S31500003DE0FB79002B00F0B980FB681B7D002B3AD0D5
S31500003DF0FB681B7D012B0DD1BB68B3F5B43F09D918
S31500003E00FB681B7D013BDAB2FB681A75FB68012271
S31500003E105A7728E0FB681B7D022B13D1BB68B3F5EC
S31500003E20903F0FD9FB681B7D013BDAB2FB681A7520
S31500003E30FB6801225A7716E0746E080009800700B5
S31500003E40CDCCCCCCFB681B7D032B0CD1BB68B3F56A
S31500003E50F03F08D9FB681B7D013BDAB2FB681A7597
S31500003E60FB6801225A77FB685B7F012B05D1FB6853
S31500003E700022DA85FB6800221A86FB685B7F002B2E
S31500003E8040F00281FB79002B0BD0FB685B8A1A4657
S31500003E901346DB001344002B00DA0733DB101A4607
S31500003EA00AE0FB681B8A1A461346DB001344002B04
S31500003EB000DA0733DB101A46FB795B0028333B44F4
S31500003EC033F8143C9A4222DAFA79FB68083253F83E
S31500003ED0222013469B0013445B00B3F5FC1F16D249
S31500003EE0FA79FB68083253F8222013469B001344E4
S31500003EF05B001946FA79994BA3FB01135908FB6835
S31500003F00083243F82210FB6801221A77BCE0FB79DD
S31500003F10002B03D0FB685B8A1A4602E0FB681B8A0B
S31500003F201A46BB8B5B009A4240F3AE80FB79002BAE
S31500003F3007D0FB685A8ABB8BD31A9AB2FB685A829F
S31500003F4006E0FB681A8ABB8BD31A9AB2FB681A8200
S31500003F50FB68012283F82C2096E0FB79002B0BD01E
S31500003F60FB685B8A1A461346DB001344002B00DA13
S31500003F700733DB101A460AE0FB681B8A1A4613460B
S31500003F80DB001344002B00DA0733DB101A46FB79FB
S31500003F905B0028333B4433F8143C9A4222DAFA7920
S31500003FA0FB68083253F8222013469B0013445B003B
S31500003FB0B3F5FC1F16D2FA79FB68083253F82220B3
S31500003FC013469B0013445B001946FA79634BA3FB27
S31500003FD001135908FB68083243F82210FB680122D6
S31500003FE01A7751E0FB79002B03D0FB685B8A1A46EF
S31500003FF002E0FB681B8A1A46BB8B5B009A4243DDD4
S31500004000FB79002B07D0FB685A8ABB8BD31A9AB26E
S31500004010FB685A8206E0FB681A8ABB8BD31A9AB2EF
S31500004020FB681A82FB68012283F82C202CE0FA79BF
S31500004030FB68083253F822207B6AD31ABA689A4280
S3150000404022D9FA79FB68083253F822207B6A134496
S31500004050BA689A4218D2FB79FA6814335B001344A3
S31500004060DB88FA8B9A420FD3FA79F96802F11403C6
S315000040705B000B44DB88013398B2F96802F1140344
S315000040805B000B440246DA80FB79FA6814335B0066
S315000040901344DB88FA8B9A420CD2FB79002B04D0AE
S315000040A0FB68012283F8292010E0FB68012283F8CF
S315000040B028200BE0FB79002B04D0FB68002283F854
S315000040C0292003E0FB68002283F82820FB6893F888
S315000040D02A30DBB2002B1AD0FB6893F82830DBB20B
S315000040E0002B05D0FB6893F82930DBB2002B0ED1EC
S315000040F0FB68002283F82A20FB68012283F82B2024
S31500004100FB6800229A72FB681022DA721FE0FB68D5
S3150000411093F82A30DBB2002B19D1FB6893F82830CC
S31500004120DBB2002B13D0FB6893F82930DBB2002BEF
S315000041300DD0FB68012283F82A20FB68012283F850
S315000041402B20FB6820229A72FB680022DA7200BFDD
S315000041502C37BD465DF8047B704700BF398EE338C7
S3150000416080B483B000AF78607B6800225A777B68A2
S315000041700022DA857B6800221A8600BF0C37BD460E
S315000041805DF8047B7047FFFF80B483B000AF034641
S31500004190FB71FA792E491346DB0013449B000B444E
S315000041A0083300221A70FA7929491346DB001344B2
S315000041B09B000B44113300221A70FA7924491346E6
S315000041C0DB0013449B000B4400221A70FA79204945
S315000041D01346DB0013449B000B44133300221A7072
S315000041E0FA791B491346DB0013449B000B44123338
S315000041F000221A70FA7916491346DB0013449B0015
S315000042000B440A3300221A80FA7911491346DB005F
S3150000421013449B000B441A3300221A70FA790C4996
S315000042201346DB0013449B000B441E3300221A8006
S31500004230FA7907491346DB0013449B000B441033FD
S3150000424000221A7000BF0C37BD465DF8047B70472C
S31500004250641C002080B584B000AF78600023FB604A
S3150000426063E0FB68DBB21846FFF78EFFFA68134679
S31500004270DB0013449B001A467B6813444149FA68E5
S315000042800A4412785A75FA681346DB0013449B00F9
S315000042901A467B6813443C49FA680A4412781A7530
S315000042A0FA681346DB0013449B001A467B681344E6
S315000042B03649FA680A441278DA75FA681346DB005A
S315000042C013449B001A467B6813443149FA680A4432
S315000042D012789A75FA681346DB0013449B001A4657
S315000042E07B6813442B49FA680A4412781A76FA68EE
S315000042F01346DB0013449B001A467B681344264989
S31500004300FA680A4412785A76FA681346DB001344B0
S315000043109B001A467B6813442049FA680A441278BF
S3150000432083F82020FB680133FB60FB68042B98DDD3
S315000043307B681B4A5A607B6824331A4A5A607B683A
S315000043404833194A5A607B686C33184A5A607B684E
S315000043509033174A5A607B68164ADA607B682433C2
S31500004360154ADA607B684833144ADA607B686C3336
S31500004370134ADA607B689033124ADA6000BF10375E
S31500004380BD4680BD786E0800806E0800886E080005
S31500004390906E0800986E0800A06E0800A86E0800CF
S315000043A0181D00202C1D0020541D00207C1D0020FF
S315000043B0901D0020AC1D0020D41D0020081E0020EA
S315000043C03C1E0020641E002080B586B000AF7860D9
S315000043D00B46FB7000237B610023FB60FB781946CC
S315000043E0786800F02AF803467B810023FB7412E00C
S315000043F0FB7C5B007A6813441B881A467B89D31AB8
S31500004400FB60FB6803FB03F31A467B6913447B617D
S31500004410FB7C0133FB74FA7CFB789A42E8D3FB7889
S315000044207A69B2FBF3F37B617869FCF7E4F903463A
S315000044309BB218461837BD4680BD80B485B000AF24
S3150000444078600B46FB700023FB600023FB720BE0D9
S31500004450FB7A5B007A6813441B881A46FB68134490
S31500004460FB60FB7A0133FB72FA7AFB789A42EFD350
S31500004470FA68FB78B2FBF3F39BB218461437BD46D5
S315000044805DF8047B7047FFFF90B585B000AF03462B
S315000044903960FB711346BB710023FB8100237B81CE
S315000044A000237B73FA79A8491346DB0013449B006B
S315000044B00B440A331B88002B0BD0FA79A24913460A
S315000044C0DB0013449B000B441A331B78012B40F08E
S315000044D0C880FB791846FFF757FE3B68002B00F0B3
S315000044E0B580FA7998491346DB0013449B000B44C8
S315000044F0113300221A70FA7993491346DB001344EC
S315000045009B000B44083300221A70FA798E49134631
S31500004510DB0013449B000B4404331968FA798A487C
S315000045201346DB0013449B00034408331B785B00EF
S315000045300B443A6892B21A80FA7983491346DB0033
S3150000454013449B000B441B780133D8B27E491346B3
S31500004550DB0013449B000B4402461A70FA793B6851
S3150000456098B279491346DB0013449B000B440A3387
S3150000457002461A80FA7974491346DB0013449B00FD
S315000045800B4408331B780133D8B26F491346DB005E
S3150000459013449B000B44083302461A70FA796A49A1
S315000045A01346DB0013449B000B440C331968FA795D
S315000045B065481346DB0013449B00034411331B7804
S315000045C05B000B443A6892B21A80FA795E49134648
S315000045D0DB0013449B000B4411331B780133D8B224
S315000045E059491346DB0013449B000B441133024622
S315000045F01A70FA7954491346DB0013449B000B44A6
S3150000460010331978FA7950481346DB0013449B009F
S31500004610034417331B78994213D2FA794A49134651
S31500004620DB0013449B000B4410331B780133D8B2D4
S3150000463045491346DB0013449B000B4410330246E6
S315000046401A70FB79184600F0B9FA92E2FA793E49F7
S315000046501346DB0013449B000B440A3300221A80E6
S3150000466087E23B68002B00F04F82FA793649134601
S31500004670DB0013449B000B440C331868FA7932496B
S315000046801346DB0013449B000B4410331B78FC7964
S315000046901946FFF799FE034619462B4A2346DB00C7
S315000046A023449B0013441C330A461A80BB79002B13
S315000046B04CD0FA7924491346DB0013449B000B4483
S315000046C01C331B881846FA791F491346DB0013442E
S315000046D09B000B4418331B781C46FA791A4913467B
S315000046E0DB0013449B000B440A331B8804FB03F3D3
S315000046F0002B00DA7F33DB11984250DAFA7912493F
S315000047001346DB0013449B000B4418331B781846F2
S31500004710FA790D491346DB0013449B000B440A3318
S315000047201B8800FB03F3002B00DA7F33DB11FA79D9
S3150000473098B205491346DB0013449B000B441C3317
S3150000474002461A802BE000BF641C0020FA7940491B
S315000047501346DB0013449B000B441C331988FA797B
S315000047603B481346DB0013449B00034418331B7875
S315000047709BB2994213D2FA7935491346DB001344AA
S315000047809B000B4418331B78FA7998B230491346CC
S31500004790DB0013449B000B441C3302461A800023A3
S315000047A07B73FA792A491346DB0013449B000B44BA
S315000047B00A331B881A463B6893424BD9FA79244937
S315000047C01346DB0013449B000B4419331B7899B244
S315000047D0FA791F481346DB0013449B0003441C333D
S315000047E01B8811FB03F3FB81FA7919491346DB0099
S315000047F013449B000B4420331B78002B02D1FB890A
S315000048005B08FB81FA7912491346DB0013449B00CF
S315000048100B440A331B881A463B689A1AFB899A424C
S3150000482054D9FA790A491346DB0013449B000B441A
S3150000483012331B780133D8B205491346DB00134403
S315000048409B000B44123302461A7001237B733DE032
S31500004850641C0020FA79AB491346DB0013449B0025
S315000048600B4419331B781846FA79A6491346DB0020
S3150000487013449B000B441C331B8800FB03F35B10A3
S315000048807B81FA799F491346DB0013449B000B4456
S315000048900A331B881A463B68D21A7B899A4215D975
S315000048A0FA7998491346DB0013449B000B441233F4
S315000048B01B780133D8B293491346DB0013449B009F
S315000048C00B44123302461A7001237B737B7B002B49
S315000048D040F0A280FA798B491346DB0013449B0013
S315000048E00B441978FA7987481346DB0013449B007A
S315000048F0034416331B78994211D2FA79814913463B
S31500004900DB0013449B000B441B780133D8B27D496E
S315000049101346DB0013449B000B4402461A70FA79D7
S3150000492078491346DB0013449B000B440433196893
S31500004930FA7974481346DB0013449B00034408339A
S315000049401B785B000B443A6892B21A80FA796D497B
S315000049501346DB0013449B000B4404331868FA79B2
S3150000496068491346DB0013449B000B441B78FC7913
S315000049701946FFF762FD03461946624A2346DB00E5
S3150000498023449B0013440A330A461A80FA795D4988
S315000049901346DB0013449B000B44133300221A70AA
S315000049A0FA7958491346DB0013449B000B44123333
S315000049B000221A70FA7953491346DB0013449B0010
S315000049C00B4408331B780133D8B24E491346DB003B
S315000049D013449B000B44083302461A70FA7949497E
S315000049E01346DB0013449B000B4408331978FA790D
S315000049F044481346DB0013449B00034416331B78DC
S31500004A00994209D3FA793F491346DB0013449B00C8
S31500004A100B44083300221A70FA793A491346DB0030
S31500004A2013449B000B4410331978FA793548134622
S31500004A30DB0013449B00034417331B78994213D2BF
S31500004A40FA7930491346DB0013449B000B441033BC
S31500004A501B780133D8B22B491346DB0013449B0065
S31500004A600B44103302461A70FA7926491346DB00C6
S31500004A7013449B000B440C331968FA7921481346FA
S31500004A80DB0013449B00034411331B785B000B448B
S31500004A903A6892B21A80FB79184600F08FF8FA79D4
S31500004AA018491346DB0013449B000B4411331B7853
S31500004AB00133D8B213491346DB0013449B000B4461
S31500004AC0113302461A70FA790E491346DB00134475
S31500004AD09B000B4411331978FA790A481346DB0018
S31500004AE013449B00034417331B78994241D3FA7948
S31500004AF004491346DB0013449B000B441133002288
S31500004B001A7036E0641C00203B68002B31D1FA791C
S31500004B1029491346DB0013449B000B4413331B78CF
S31500004B200133D8B224491346DB0013449B000B44DF
S31500004B30133302461A70FA791F491346DB001344F1
S31500004B409B000B4413331978FA791B481346DB0094
S31500004B5013449B00034415331B78994209D1FA7913
S31500004B6015491346DB0013449B000B441A330122FC
S31500004B701A70FA7910491346DB0013449B000B4464
S31500004B8012331978FA790C481346DB0013449B005C
S31500004B90034414331B78994209D3FA79064913461C
S31500004BA0DB0013449B000B441A3301221A7000BF2A
S31500004BB01437BD4690BD00BF641C002080B487B08A
S31500004BC000AF0346FB71FA7960491346DB001344D4
S31500004BD09B000B440C331B68FA7918885B49134613
S31500004BE0DB0013449B000B441E3302461A8000234D
S31500004BF0FB750123BB7500233B610123FB6033E09A
S31500004C00FA7952491346DB0013449B000B440C33DC
S31500004C101A68FB685B0013441988FA794B481346F7
S31500004C20DB0013449B0003441E331B88994218D9AA
S31500004C30FA7946491346DB0013449B000B440C33B8
S31500004C401A68FB685B001344FA7918883F491346D3
S31500004C50DB0013449B000B441E3302461A80FB689C
S31500004C60FB75FB680133FB60FA7938491346DB00B4
S31500004C7013449B000B4410331B781A46FB6893427F
S31500004C80BEDBFA7931491346DB0013449B000B4423
S31500004C901E331B883B610023BB6034E0FB7DBA6892
S31500004CA09A422DD0FA7929491346DB0013449B001A
S31500004CB00B440C331A68BB685B0013441988FA79F5
S31500004CC022481346DB0013449B0003441E331B8813
S31500004CD05B089BB2994213D9FA791C491346DB004B
S31500004CE013449B000B440C331A68BB685B001344E7
S31500004CF01B881A463B6913443B61BB7D0133BB7578
S31500004D00BB680133BB60FA7910491346DB001344D4
S31500004D109B000B4410331B781A46BB689342BDDBDD
S31500004D20BB7D3A69B2FBF3F3FA7998B207491346A9
S31500004D30DB0013449B000B441E3302461A8000BF5F
S31500004D401C37BD465DF8047B704700BF641C00201D
S31500004D5080B5A8B000AF0346FB710023BB6007F126
S31500004D600C039222002118467FF09BF9344B1A68F7
S31500004D70344B1B6807F1080033497FF067FB07F1E6
S31500004D800803184601F098F8FB79002B11D107F1BA
S31500004D9008032E4918467FF059FB07F10803184609
S31500004DA001F08AF807F10803294918467FF04EFBFF
S31500004DB03DE0FB79012B11D107F10803254918467F
S31500004DC07FF044FB07F10803184601F075F807F178
S31500004DD008031F4918467FF039FB28E0FB79032BAF
S31500004DE011D107F108031C4918467FF02FFB07F184
S31500004DF00803184601F060F807F10803174918463A
S31500004E007FF024FB13E0FB79022B10D107F1080396
S31500004E10134918467FF01AFB07F10803184601F0FC
S31500004E204BF807F108030D4918467FF00FFB07F111
S31500004E300803184601F040F800BFA037BD4680BD04
S31500004E40EC920800F0920800B06E0800B86E0800F8
S31500004E50DC6E0800106F0800346F0800546F0800FD
S31500004E60A06F080080B584B000AF0346FB71002335
S31500004E70FB605E4B00221A8000F0E0FB5C4B0122D7
S31500004E801A705C495C487FF07EFB0346002B06D116
S31500004E905A4959487FF077FB0346002B10D0544BF4
S31500004EA000221A705649574806F012F8564801F083
S31500004EB003F8564806F00CF8534800F0FDFF24E0CE
S31500004EC0534B1B78002B1AD00D214B487FF021FB4A
S31500004ED00346002B13D0464B00221A704C4B00227F
S31500004EE01A704749474805F0F3FF474800F0E4FFCA
S31500004EF0464805F0EDFF444800F0DEFF05E04FF4BC
S31500004F007A7101207DF052F9BBE7FB79002B10D1B5
S31500004F10404B414A1A60414B4FF4C0621A60404B05
S31500004F2018221A6034487FF013FB03463D4AD360CB
S31500004F3038E0FB79012B10D1364B3B4A1A60374BD0
S31500004F404FF400621A60364B20221A602A487FF01E
S31500004F50FFFA0346334AD36124E0FB79032B0FD1D2
S31500004F602C4B324A1A602D4B80221A602C4B02229F
S31500004F701A6021487FF0ECFA03462A4AD36311E00F
S31500004F80FB79022B0ED1234B294A1A60234B802230
S31500004F901A60234B02221A6017487FF0D9FA03469B
S31500004FA0204AD36200F04CF8F860FB68002B04D06E
S31500004FB0204800F081FFFB6813E0FB79184600F0FB
S31500004FC053F9F860FB68002B04D01A4800F074FF10
S31500004FD0FB6806E0184800F06FFF184800F06CFF09
S31500004FE0FB6818461037BD4680BD00BFA41E0020D2
S31500004FF0B8580020C46F0800B8480020E06F0800C9
S315000050004079080000700800D8C900201C7008000C
S31500005010BD9C0020B42F002040100008B82F0020AF
S31500005020BC2F0020C42F002040160008C01E000818
S31500005030401E00084070080070700800A470080048
S3150000504080B582B000AF00237B60714B00221A80CE
S315000050500023FB706F4B1B686F4A126819466F4836
S315000050607AF052FD78607B68002B0ED06C496D4853
S3150000507005F02EFF6C4800F01FFF6C4805F028FF76
S31500005080694800F019FF7B68BEE0694B1B78002B6E
S3150000509018D06349634805F01BFF634800F00CFF16
S315000050A0644805F015FF604800F006FF00BF624B3C
S315000050B01B78DBB283F00103DBB2002BF7D15E4B2A
S315000050C000221A70534B1968FB1C402253487AF091
S315000050D03DFD78607B68002B0ED05149574805F09E
S315000050E0F7FE514800F0E8FE554805F0F1FE4E483F
S315000050F000F0E2FE7B6887E0FB78002B0DD1484983
S31500005100484805F0E5FE484800F0D6FE4D4805F053
S31500005110DFFE454800F0D0FE1CE0FB78012B0ED1E7
S315000051203F49464805F0D4FE3F4800F0C5FE4648D4
S3150000513005F0CEFE3C4800F0BFFE012364E0FB789C
S31500005140022B07D100F02EFD78607B68002B01D082
S315000051507B6859E03D4B1B78002B1ED03C492D4BFC
S315000051601A683C4B1B682D487AF0ACFC78607B686B
S31500005170002B0ED02A49314805F0AAFE2A4800F035
S315000051809BFE354805F0A4FE274800F095FE7B6897
S315000051903AE02E4B00221A701AE030491D4B1A686D
S315000051A02C4B1B681D487AF08DFC78607B68002BC1
S315000051B00ED01B49214805F08BFE1B4800F07CFEF3
S315000051C0254805F085FE184800F076FE7B681BE052
S315000051D0174B1B78002B0BD000BF214B1B78DBB283
S315000051E083F00103DBB2002BF7D11D4B00221A70AE
S315000051F04FF40062002119487EF053FF194B00223C
S315000052001A8000F0EBFE7B6818460837BD4680BD65
S31500005210A41E0020B42F0020BC2F0020A46B012068
S315000052205879080000700800D8C90020D07008001E
S31500005230CCA10800FC700800A21E00201071080016
S315000052402C710800607108007C710800C02F0020D6
S31500005250C42F0020B82F0020C8710800B8480020CD
S31500005260A31E0020BA58002080B584B000AF0346C4
S31500005270FB710023FB601C4B00221A801B4B1C4A4F
S315000052801A601C4B80221A601B4B02221A60FB79A3
S31500005290002B03D1194B01225A7215E0FB79012B21
S315000052A003D1164B01225A760EE0FB79022B04D16C
S315000052B0124B012283F8292006E0FB79032B03D148
S315000052C00E4B012283F839200D4B01221A70FFF78D
S315000052D0B7FEF860FB68002B01D0FB6800E0FB68B6
S315000052E018461037BD4680BDA41E0020B42F0020EE
S315000052F0401F0008B82F0020BC2F0020C42F00201C
S31500005300C02F002080B5AAB000AF0346FB71002372
S31500005310C7F8A030002387F8A7300023BB6007F149
S315000053200C039222002118467EF0BBFE00F086F99F
S31500005330834B1A68834B1B6807F1080082497FF08C
S3150000534085F807F10803184600F0B6FD07F10803D3
S315000053507E4918467FF07AF807F10803184600F0F0
S31500005360ABFDDBE097F8A730002B44D197F8A730C8
S31500005370774A1B01134409331B78002B3BD097F85F
S31500005380A730734A1B01134404331B68194697F868
S31500005390A7306F4A1B0113441B681A466D487EF0FE
S315000053A059FE6D496B487FF0EEF80346002B1FD07F
S315000053B068487FF0CDF80246654BDB689A4217D104
S315000053C0FB79002B08D0654800F076FD614800F0B7
S315000053D073FD634800F070FD97F8A7305C4A1B0127
S315000053E013441B681A4600215A487EF05AFE02E012
S315000053F05C4800F061FD97F8A730012B31D197F892
S31500005400A730534A1B01134409331B78002B28D0BD
S3150000541097F8A7304E4A1B01134404331B681946FC
S3150000542097F8A7304A4A1B0113441B681A46494895
S315000054307EF010FEFB79002B08D04B4800F03CFDB7
S31500005440444800F039FD464800F036FD97F8A7308D
S315000054503F4A1B0113441B681A4600213D487EF053
S3150000546020FE97F8A730022B2BD197F8A730384AA1
S315000054701B01134409331B78002B22D097F8A73061
S31500005480334A1B01134404331B68194697F8A730A7
S315000054902F4A1B0113441B681A462E487EF0DAFD7C
S315000054A0324800F009FD2B4800F006FD97F8A730BA
S315000054B0274A1B0113441B681A46002125487EF023
S315000054C0F0FD97F8A730032B23D197F8A730204A91
S315000054D01B01134409331B78002B1AD097F8A73009
S315000054E01B4A1B01134404331B68194697F8A7305F
S315000054F0174A1B0113441B681A4616487EF0AAFD7C
