S0220000417A757265436C6F75645241364D35583530395F4653503432302E73726563E5
S31500000000D8BE0120ED36080009340800FB3608008A
S31500000010FB360800FB360800FB360800FB360800F6
S31500000020000000000000000000000000FB36080091
S31500000030FB36080000000000F907040079080400F8
S31500000040B907080079FE0700B90708004DFA07004E
S3150000005081FA0700B5FA0700E9FA070079FE0700FA
S3150000006079FE0700335E0400A95C0400C35F040048
S315000000701B600400D113080035130800412F080047
S31500000080000000000000000000000000000000006A
S31500000090000000000000000000000000000000005A
S315000000A0000000000000000000000000000000004A
S315000000B0000000000000000000000000000000003A
S315000000C0000000000000000000000000000000002A
S315000000D0000000000000000000000000000000001A
S315000000E0000000000000000000000000000000000A
S315000000F000000000000000000000000000000000FA
S3150000010000000000000000000000000000000000E9
S3150000011000000000000000000000000000000000D9
S3150000012000000000000000000000000000000000C9
S3150000013000000000000000000000000000000000B9
S3150000014000000000000000000000000000000000A9
S315000001500000000000000000000000000000000099
S315000001600000000000000000000000000000000089
S315000001700000000000000000000000000000000079
S315000001800000000000000000000000000000000069
S315000001900000000000000000000000000000000059
S315000001A00000000000000000000000000000000049
S315000001B00000000000000000000000000000000039
S315000001C0FFFFFFFFFFFFFFFFFFFFFFFFFFFFFFFF39
S315000001D0FFFFFFFFFFFFFFFFFFFFFFFFFFFFFFFF29
S315000001E0FFFFFFFFFFFFFFFFFFFFFFFFFFFFFFFF19
S315000001F0FFFFFFFFFFFFFFFFFFFFFFFFFFFFFFFF09
S3150000020010B5054C237833B9044B13B1044800E00C
S3150000021000BF0123237010BD8008002000000000ED
S31500000220F0FF080008B5034B1BB10349034800E083
S3150000023000BF08BD0000000084080020F0FF080091
S3150000024080B58AB000AFF860B9607A607B6800223A
S315000002505A807B680022A3F8AC2E7B680022A3F8A4
S3150000026050207B684FF000025A617B68002283F8B9
S315000002705A207B680022A3F8AC2E7B680022DA6540
S315000002807B680022A3F8222F7B680022A3F8242F84
S315000002907B68082283F8B22E7B6893F8B23E194633
S315000002A0012000F03FFB7B6893F8B23E1946002020
S315000002B000F038FB7B68002283F81E2F7B68002243
S315000002C083F81F2F7B68002283F8202F724A07F1DC
S315000002D01C0392E803001860043319706F4A07F193
S315000002E0140392E803001860043319707B680B222C
S315000002F083F8B52100237B621AE007F11C027B6AB2
S31500000300134419787A687B6A134403F5D5730A4651
S315000003101A7007F114027B6A134419787A687B6AAB
S31500000320134403F2AF130A461A707B6A01337B62E9
S315000003307B6A042BE1DD7B68002283F844207B681E
S31500000340002283F85B247B680022C3F888217B683F
S31500000350002283F884217B68002283F85A247B6874
S31500000360002283F859247B680022C3F89C247B680A
S315000003700022C3F88821042000F0EEFC7B680022EE
S31500000380A3F898247B680022A3F89A247B680022AD
S315000003909A857B6800229A647B680022DA647B680F
S315000003A000229A637B680022DA637B6800221A6364
S315000003B07B6800225A637B68012283F8E82F0020BD
S315000003C000F0CAFC012000F0C7FC022000F0C4FCCB
S315000003D0032000F0C1FC324B042283F83A20304B54
S315000003E0042283F85E202E4B012283F880207B684E
S315000003F003F2A44318469FED2B0A00F083F8F0EEB3
S31500000400407A7B6803F59563C3ED007A7B6800222A
S3150000041083F8282F7B680022A3F8A024786800F0D0
S3150000042089F9B86800F0DAFB7B680022A3F854204B
S315000004307B684FF000025A627B684FF000021A6236
S315000004407B680022A3F856207B680022A3F8B02E12
S315000004507B6803F58053002283F86D217B6803F5E2
S315000004608053002283F86C217B6803F580530022B9
S3150000047083F86D217B6803F58053002283F86E2193
S31500000480FB6893F873207B6803F5805383F86F212C
S3150000049000BF2837BD4680BDA8710800B0710800AE
S315000004A0701C00200000000080B487B000AF7860A8
S315000004B000237B614FF400433B610F23FB607B69A4
S315000004C05A003B691A44FB68591EF96002FA03F3A5
S315000004D0BB60BA687B689A4207D87A693B6913445D
S315000004E07B617A68BB68D31A7B603B695B083B61BA
S315000004F03B69002BE3D17B6918461C37BD465DF886
S31500000500047B7047B0B586B000AF87ED010A38604E
S315000005104FF000037B6100233B610C233B720023F9
S31500000520FB60D7ED017AF5EEC07AF1EE10FA40F3F2
S31500000530E4807C4B1B780133DAB27A4B1A70794B24
S315000005401B780C2B02D9774B0C221A70764B93F939
S315000005500030764A9B0013447A681A60786884F003
S315000005608BF804460D4697F90830184645EC104BB3
S3150000057084F0FFFD51EC100B6B4B93F900301C46D9
S3150000058084F06CFB03461AB2694B23F81420664BC1
S315000005901B78FB72644B93F90030DBB20133DBB29C
S315000005A05AB2614B1A70604B93F900300C2B02D192
S315000005B05D4B00221A700023BB7226E097F90B30C0
S315000005C05A4A9B001344D3ED007A97ED057A77EEED
S315000005D0277AC7ED057A97F90B30554A32F9133069
S315000005E01A463B6913443B6197F90B30DBB2013B7A
S315000005F0DBB2FB7297F90B30002B03DAFB7A0C3374
S31500000600DBB2FB72BB7A0133BB72464B1B78BA7AFC
S315000006109A42D3D3434B1B7807EE903AB8EEE77A6B
S31500000620D7ED056AC6EE877AC7ED057A3D4B1B788E
S315000006301A463B6993FBF2F33B613B4B93F900305F
S31500000640DBB2013BDBB2FB7297F90B30002B03DA0E
S31500000650FB7A0C33DBB2FB7200237B7226E097F940
S315000006600B30334A32F913301A463B69D31A19460E
S3150000067097F90B302E4A32F913301A463B69D31AD2
S3150000068001FB03F3FA681344FB6097F90B30DBB206
S31500000690013BDBB2FB7297F90B30002B03DAFB7AD6
S315000006A00C33DBB2FB727B7A01337B721D4B1B78FA
S315000006B07A7A9A42D3D31B4B1B781A46FB68B3FB54
S315000006C0F2F3FB60F868FFF7EFFEF860F86883F076
S315000006D0B1FF04460D4697F908305B42184645ECD3
S315000006E0104B84F046FD53EC102B1046194684F04F
S315000006F0FDFA02463B681A600BE07B687B61094B9A
S3150000070000221A70084B00221A703B684FF0000254
S315000007101A607B6907EE903AB0EE670A1837BD4655
S31500000720B0BD00BF0C1A00200D1A0020101A0020C0
S31500000730401A002080B485B000AF78600023FB73B8
S31500000740B4E0FB7B7A6803F5FD635B00134400228B
S315000007505A80FB7B7A6803F2CA339B00134400225B
S315000007605A60FB7B7A6803F5F3635B00134400224F
S315000007709A80FA7B7B6802F2CE32002143F822107F
S31500000780FA7B7B6802F5F462002123F81210FB7BEA
S315000007907A6803F574739B00134400225A60FB7B4E
S315000007A07A6803F2A4735B00134400229A80FA7BF2
S315000007B07B6802F57572002143F82210FA7B7B688C
S315000007C002F5F662002123F81210FA7B7B6802F22A
S315000007D0D632002143F822100023BB730CE0F97BCC
S315000007E0BA7B7B6849000A4402F2B472002123F8FE
S315000007F01210BB7B0133BB73BB7B012BEFD9FB7B99
S315000008007A6803F5F6635B00134400229A80FB7B4B
S315000008107A681344002283F8742FFB7B7A681344AA
S31500000820002283F8792FFB7B7A681344002283F831
S315000008307B2FFA7B7B6802F2E232002143F822101A
S315000008407B68EF2283F8942FFA7B7B6802F2E6320C
S31500000850002143F82210FB7B7A681344002283F8B8
S31500000860742FFB7B7A681344002283F8D82FFB7B16
S315000008707A681344002283F8DA2F00237B730FE093
S31500000880FA7B787B796813465B0013445B0003446C
S3150000089003F57A73002241F823207B7B01337B73B7
S315000008A07B7B052BECD9FB7B0133FB737B6803F564
S315000008B0805393F86F31FA7B9A427FF642AF7B689A
S315000008C00022C3F8902F7B68002283F8782F7B687C
S315000008D0002283F8D02F7B68002283F8D62F7B680E
S315000008E0282283F87D2F7B68002283F8D72F7B6828
S315000008F00022A3F8762F7B680022C3F8E02F7B68DE
S315000009000022C3F8DC2F7B680022A3F8E42F7B6863
S315000009100022A3F8E62F00BF1437BD465DF8047B1E
S315000009207047FFFF80B483B000AF03460A46FB71F1
S315000009301346BB71FB79012B33D8FA791C49134650
S315000009401B019B1A1B010B44C8334FF0FF321A6080
S31500000950FA79174913461B019B1A1B010B44EC330A
S315000009604FF6FF721A80FA79114913461B019B1A3A
S315000009701B010B44C433BA791A70FA790C49134631
S315000009801B019B1A1B010B44C533BA791A70FA79FD
S31500000990074913461B019B1A1B010B444FF6FF72B6
S315000009A01A8000BF0C37BD465DF8047B704700BF58
S315000009B0581A002080B483B000AF0346FB71044A86
S315000009C0FB79137000BF0C37BD465DF8047B70479A
S315000009D0381C002080B582B000AF80233B713A1DE1
S315000009E001231521A62002F07DFE012142F210709E
S315000009F082F03AFC00BF0837BD4680BD80B582B0A4
S31500000A0000AF3A1D02230021A62002F015FE3B7915
S31500000A101B021AB27B791BB213431BB29BB2184658
S31500000A200837BD4680BD80B584B000AF7860082326
S31500000A303B737B68DA797B681B7A1343DBB27B7383
S31500000A4007F10C0202231521A62002F04BFE00BF7F
S31500000A501037BD4680BD80B584B000AF78600023F6
S31500000A603B737B689A7A7B68DB7A1343DAB27B68DE
S31500000A701B7B1343DBB27B732223BB7307F10C0290
S31500000A8003232B21A62002F02DFE00BF1037BD4602
S31500000A9080BD80B584B000AF78607B681B88DBB210
S31500000AA03B737B681B881B0A9BB2DBB27B737B683C
S31500000AB05B88DBB2BB737B685B881B0A9BB2DBB2CD
S31500000AC0FB7307F10C0204231E21A62002F00AFE86
S31500000AD000BF1037BD4680BD80B584B000AF7860DA
S31500000AE07B68DB89DBB23B737B68DB891B0A9BB2C5
S31500000AF0DBB27B7307F10C0202231721A62002F05A
S31500000B00F1FD00BF1037BD4680BD80B584B000AF93
S31500000B1078607B681B8ADBB23B737B681B8A1B0A87
S31500000B209BB2DBB27B737B685B8ADBB2BB737B6891
S31500000B305B8A1B0A9BB2DBB2FB7307F10C02042330
S31500000B403021A62002F0CEFD00BF1037BD4680BD85
S31500000B5080B584B000AF78607B681B7D1B015BB2FB
S31500000B6043F00A035BB2DBB23B7304237B7307F1EA
S31500000B700C0202232E21A62002F0B4FD00BF10377E
S31500000B80BD4680BD80B584B000AF78607B681B79B8
S31500000B9043F00A03DBB23B737B689B7943F0300377
S31500000BA0DBB27B7307F10C0202233521A62002F08B
S31500000BB099FD00BF1037BD4680BD80B584B000AF3B
S31500000BC078601C233B7307F10C0201233721A62012
S31500000BD002F088FD00BF1037BD4680BD80B584B0E9
S31500000BE000AF78607B68DB793B7307F10C02012369
S31500000BF01621A62002F076FD00233B7300237B73AB
S31500000C000023BB7307F10C0203233821A62002F050
S31500000C1069FDFFF7F3FE7B68DA797B681B7A13437D
S31500000C20DBB23B7307F10C0201231621A62002F06A
S31500000C3059FD00BF1037BD4680BD80B584B000AFFA
S31500000C407860FFF7C7FE7868FFF746FF1A233B7305
S31500000C5015237B7307F10C0202231921A62002F04B
S31500000C6041FD7868FFF715FF7868FFF771FF7B682D
S31500000C7001221A727B680022DA717868FFF7EBFEB0
S31500000C807868FFF7D0FE00BF1037BD4680BD80B53F
S31500000C9084B000AF7860FFF79DFE7B6800221A7370
S31500000CA07868FFF7D8FE07F10C0201232C21A62055
S31500000CB002F0C2FC7868FFF74BFF7868FFF725FF64
S31500000CC07868FFF75FFF7868FFF777FF7B68022297
S31500000CD0DA717868FFF7A7FE00BF1037BD4680BD02
S31500000CE080B584B000AF7860FFF774FE7B680022A1
S31500000CF01A737868FFF7AFFE07F10C0201232C2167
S31500000D00A62002F099FC7868FFF722FF7868FFF7C3
S31500000D10FCFE7868FFF736FF7868FFF74EFF7B68C2
S31500000D200422DA717868FFF77EFE00BF1037BD46F1
S31500000D3080BD80B483B000AF78607B6800225A77AC
S31500000D407B680022DA857B6800221A8600BF0C3792
S31500000D50BD465DF8047B704780B483B000AF0346A0
S31500000D60FB71FA792E491346DB0013449B000B44B2
S31500000D70083300221A70FA7929491346DB00134416
S31500000D809B000B44113300221A70FA79244913464A
S31500000D90DB0013449B000B4400221A70FA792049A9
S31500000DA01346DB0013449B000B44133300221A70D6
S31500000DB0FA791B491346DB0013449B000B4412339C
S31500000DC000221A70FA7916491346DB0013449B0079
S31500000DD00B440A3300221A80FA7911491346DB00C4
S31500000DE013449B000B441A3300221A70FA790C49FB
S31500000DF01346DB0013449B000B441E3300221A806B
S31500000E00FA7907491346DB0013449B000B44103361
S31500000E1000221A7000BF0C37BD465DF8047B704790
S31500000E20701C002080B584B000AF78600023FB60A2
S31500000E3063E0FB68DBB21846FFF78EFFFA681346DD
S31500000E40DB0013449B001A467B6813444149FA6849
S31500000E500A4412785A75FA681346DB0013449B005D
S31500000E601A467B6813443C49FA680A4412781A7594
S31500000E70FA681346DB0013449B001A467B6813444A
S31500000E803649FA680A441278DA75FA681346DB00BE
S31500000E9013449B001A467B6813443149FA680A4496
S31500000EA012789A75FA681346DB0013449B001A46BB
S31500000EB07B6813442B49FA680A4412781A76FA6852
S31500000EC01346DB0013449B001A467B6813442649ED
S31500000ED0FA680A4412785A76FA681346DB00134415
S31500000EE09B001A467B6813442049FA680A44127824
S31500000EF083F82020FB680133FB60FB68042B98DD38
S31500000F007B681B4A5A607B6824331A4A5A607B689E
S31500000F104833194A5A607B686C33184A5A607B68B2
S31500000F209033174A5A607B68164ADA607B68243326
S31500000F30154ADA607B684833144ADA607B686C339A
S31500000F40134ADA607B689033124ADA6000BF1037C2
S31500000F50BD4680BDC4710800CC710800D47108007C
S31500000F60DC710800E4710800EC710800F4710800F7
S31500000F70241D0020381D0020601D0020881D002033
S31500000F809C1D0020B81D0020E01D0020141E00201E
S31500000F90481E0020701E002080B5A8B000AF034692
S31500000FA0FB710023BB6007F10C0392220021184657
S31500000FB084F0D7F8344B1A68344B1B6807F10800E5
S31500000FC0334984F017FA07F10803184601F098F838
S31500000FD0FB79002B11D107F108032E49184684F03E
S31500000FE009FA07F10803184601F08AF807F1080321
S31500000FF02949184684F0FEF93DE0FB79012B11D111
S3150000100007F108032549184684F0F4F907F10803A7
S31500001010184601F075F807F108031F49184684F0D1
S31500001020E9F928E0FB79032B11D107F108031C49E4
S31500001030184684F0DFF907F10803184601F060F856
S3150000104007F108031749184684F0D4F913E0FB7931
S31500001050022B10D107F108031349184684F0CAF988
S3150000106007F10803184601F04BF807F108030D498C
S31500001070184684F0BFF907F10803184601F040F856
S3150000108000BFA037BD4680BD8C9208009092080034
S31500001090FC71080004720800287208005C720800DF
S315000010A080720800A0720800EC72080080B584B057
S315000010B000AF0346FB710023FB605E4B00221A80E3
S315000010C000F0E0FB5C4B01221A705C495C4884F03E
S315000010D0EBF90346002B06D15A49594884F0E4F946
S315000010E00346002B10D0544B00221A70564957481D
S315000010F005F086FA564801F003F8564805F080FADE
S31500001100534800F0FDFF24E0534B1B78002B1AD008
S315000011100D214B4884F08EF90346002B13D0464B25
S3150000112000221A704C4B00221A704749474805F0B6
S3150000113067FA474800F0E4FF464805F061FA44487C
S3150000114000F0DEFF05E04FF47A71012082F08CF8A2
S31500001150BBE7FB79002B10D1404B414A1A60414B4B
S315000011604FF4C0621A60404B18221A60344884F06B
S3150000117080F903463D4AD36038E0FB79012B10D154
S31500001180364B3B4A1A60374B4FF400621A60364BB7
S3150000119020221A602A4884F06CF90346334AD36148
S315000011A024E0FB79032B0FD12C4B324A1A602D4BCE
S315000011B080221A602C4B02221A60214884F059F9C9
S315000011C003462A4AD36311E0FB79022B0ED1234B47
S315000011D0294A1A60234B80221A60234B02221A6086
S315000011E0174884F046F90346204AD36200F04CF8CB
S315000011F0F860FB68002B04D0204800F081FFFB68F4
S3150000120013E0FB79184600F053F9F860FB68002BF1
S3150000121004D01A4800F074FFFB6806E0184800F096
S315000012206FFF184800F06CFFFB6818461037BD4684
S3150000123080BD00BFB01E0020C458002010730800F7
S31500001240C44800202C7308008C7C08004C730800EE
S3150000125074C8002068730800C99C0020C02F0020B5
S3150000126040100008C42F0020C82F0020D02F0020D7
S3150000127040160008C01E0008401E00088C730800B7
S31500001280BC730800F073080080B582B000AF00237D
S315000012907B60714B00221A800023FB706F4B1B682A
S315000012A06F4A126819466F487FF08CFC78607B683D
S315000012B0002B0ED06C496D4805F0A2F96C4800F081
S315000012C01FFF6C4805F09CF9694800F019FF7B6820
S315000012D0BEE0694B1B78002B18D06349634805F0C4
S315000012E08FF9634800F00CFF644805F089F96048FF
S315000012F000F006FF00BF624B1B78DBB283F00103F0
S31500001300DBB2002BF7D15E4B00221A70534B1968E3
S31500001310FB1C402253487FF077FC78607B68002BEB
S315000013200ED05149574805F06BF9514800F0E8FED8
S31500001330554805F065F94E4800F0E2FE7B6887E007
S31500001340FB78002B0DD14849484805F059F9484823
S3150000135000F0D6FE4D4805F053F9454800F0D0FEA2
S315000013601CE0FB78012B0ED13F49464805F048F9B1
S315000013703F4800F0C5FE464805F042F93C4800F0FB
S31500001380BFFE012364E0FB78022B07D100F02EFD9F
S3150000139078607B68002B01D07B6859E03D4B1B7859
S315000013A0002B1ED03C492D4B1A683C4B1B682D4820
S315000013B07FF0E6FB78607B68002B0ED02A49314827
S315000013C005F01EF92A4800F09BFE354805F018F98D
S315000013D0274800F095FE7B683AE02E4B00221A70F3
S315000013E01AE030491D4B1A682C4B1B681D487FF0CC
S315000013F0C7FB78607B68002B0ED01B49214805F09F
S31500001400FFF81B4800F07CFE254805F0F9F818485F
S3150000141000F076FE7B681BE0174B1B78002B0BD089
S3150000142000BF214B1B78DBB283F00103DBB2002B3C
S31500001430F7D11D4B00221A704FF4006200211948A3
S3150000144083F08FFE194B00221A8000F0EBFE7B68BA
S3150000145018460837BD4680BDB01E0020C02F0020AC
S31500001460C82F0020D0690120A47C08004C73080016
S3150000147074C800201C740800B4A108004874080051
S31500001480AE1E00205C74080078740800AC74080076
S31500001490C8740800CC2F0020D02F0020C42F0020B5
S315000014A014750800C4480020AF1E0020C65800204E
S315000014B080B584B000AF0346FB710023FB601C4B74
S315000014C000221A801B4B1C4A1A601C4B80221A6091
S315000014D01B4B02221A60FB79002B03D1194B012208
S315000014E05A7215E0FB79012B03D1164B01225A766D
S315000014F00EE0FB79022B04D1124B012283F829203E
S3150000150006E0FB79032B03D10E4B012283F8392029
S315000015100D4B01221A70FFF7B7FEF860FB68002B2F
S3150000152001D0FB6800E0FB6818461037BD4680BD59
S31500001530B01E0020C02F0020401F0008C42F00202E
S31500001540C82F0020D02F0020CC2F002080B5AAB0B5
S3150000155000AF0346FB710023C7F8A030002387F8CD
S31500001560A7300023BB6007F10C0392220021184626
S3150000157083F0F7FD00F086F9834B1A68834B1B68EE
S3150000158007F10800824983F035FF07F10803184682
S3150000159000F0B6FD07F108037E49184683F02AFFDE
S315000015A007F10803184600F0ABFDDBE097F8A7301B
S315000015B0002B44D197F8A730774A1B01134409330F
S315000015C01B78002B3BD097F8A730734A1B011344B6
S315000015D004331B68194697F8A7306F4A1B0113445A
S315000015E01B681A466D4883F095FD6D496B4883F07C
S315000015F05BFF0346002B1FD0684883F03AFF024684
S31500001600654BDB689A4217D1FB79002B08D06548F9
S3150000161000F076FD614800F073FD634800F070FD50
S3150000162097F8A7305C4A1B0113441B681A46002131
S315000016305A4883F096FD02E05C4800F061FD97F899
S31500001640A730012B31D197F8A730534A1B01134419
S3150000165009331B78002B28D097F8A7304E4A1B0178
S31500001660134404331B68194697F8A7304A4A1B01EE
S3150000167013441B681A46494883F04CFDFB79002B3E
S3150000168008D04B4800F03CFD444800F039FD464880
S3150000169000F036FD97F8A7303F4A1B0113441B683C
S315000016A01A4600213D4883F05CFD97F8A730022BCF
S315000016B02BD197F8A730384A1B01134409331B78FE
S315000016C0002B22D097F8A730334A1B01134404336A
S315000016D01B68194697F8A7302F4A1B0113441B684D
S315000016E01A462E4883F016FD324800F009FD2B48B5
S315000016F000F006FD97F8A730274A1B0113441B6824
S315000017001A460021254883F02CFD97F8A730032BB5
S3150000171023D197F8A730204A1B01134409331B78BD
S31500001720002B1AD097F8A7301B4A1B011344043329
S315000017301B68194697F8A730174A1B0113441B6804
S315000017401A46164883F0E6FCFB79002B05D01A48AA
S3150000175000F0D6FC114800F0D3FC97F8A73001330F
S3150000176087F8A73097F8A730032B7FF61FAF1348EB
S3150000177000F0C6FC002387F8A730D7F8A03018463B
S31500001780A837BD4680BD00BF8C9208009092080025
S31500001790FC71080040750800D02F00202030002082
S315000017A01073080054750800887508008C750800C9
S315000017B0E47508001C76080054760800F0730800EB
S315000017C080B582B000AF00237B6000F019F8786026
S315000017D07B68002B06D0074B074A4FF4E571074894
S315000017E081F039FD00F04EF87B6818460837BD4693
S315000017F080BD00BF88760800B87C08009C7608008B
S3150000180080B582B000AF00237B601C4A1C4B10469B
S31500001810194650231A4683F07DFC184B5B7A83F0F9
S315000018200103DBB2002B02D0144B00225A72134B79
S315000018305B7E83F00103DBB2002B02D00F4B00224C
S315000018405A760E4B93F8293083F00103DBB2002B56
S3150000185003D00A4B002283F82920084B93F839302D
S3150000186083F00103DBB2002B03D0044B002283F884
S3150000187039207B6818460837BD4680BDD02F00202A
S31500001880401F000880B400AF1B4B4FF4C0621A60C3
S31500001890194B18221A72184B184A5A60164B4FF4F5
S315000018A000621A61144B20221A76134B144A5A61AD
S315000018B0114B80221A62104B022283F828200E4B0D
S315000018C0104A5A620C4B80221A630B4B022283F891
S315000018D03820094B0C4A5A63074B80221A64064B80
S315000018E0022283F84820044B084A5A6400BFBD46CA
S315000018F05DF8047B704700BFD02F00204010000821
S3150000190040160008401E0008C01E0008401F0008C0
S3150000191080B582B002AF2E4B1A682E4B1B682E493B
S315000019202E4883F067FD2D4800F0EAFB2C492B4832
S3150000193083F060FD294800F0E3FB2A4B4FF4786200
S315000019401A60294B5B7A002B03D0274BDB68274AAA
S315000019501360254B5B7E002B06D0234BDA69234BA5
S315000019601B681344214A13601F4B93F82930002B40
S3150000197006D01D4BDA6A1D4B1B6813441B4A1360C5
S31500001980194B93F83930002B06D0174BDA6B174BEF
S315000019901B681344154A1360124B1A68134B1B68D5
S315000019A0D31A134A13600F4B1A68104B1968104B61
S315000019B01B6800930B460F49084883F01BFD074838
S315000019C000F09EFB0C4800F09BFB00BFBD4680BDAF
S315000019D08C92080090920800FC71080020380020C4
S315000019E0B4760800BC1E0020D02F0020B41E0020B4
S315000019F0B81E0020C8760800F073080080B5A8B0AD
S31500001A0000AF0023C7F89C3000237B6007F1080372
S31500001A1092220021184683F0A4FB984B1A68984B33
S31500001A201B68381D974983F0E5FC3B1D184600F0FE
S31500001A3067FB3B1D9449184683F0DCFC3B1D1846AA
S31500001A4000F05EFB914B5B7A002B39D08F4B5B68C5
S31500001A5019468E4B1B681A468D4883F05BFB8D49F1
S31500001A608B4883F021FD0346002B21D0884883F064
S31500001A7000FD0246854BDB689A4219D1844883F003
S31500001A80F8FC03461A468249834883F043FB8348A1
S31500001A9000F036FB7E4883F0ECFC03461A46002134
S31500001AA07B4883F05EFB794B5B7E002B48D00CE0D5
S31500001AB07B4800F025FB754B00225A721223D9E0B1
S31500001AC0784800F01DFB1223D4E0704B5B69194681
S31500001AD06E4B1B691A466E4883F01CFB72496C48B4
S31500001AE083F0E2FC0346002B22D0694883F0C1FC58
S31500001AF00246664BDB699A421AD1654883F0B9FC07
S31500001B0003461A466249694883F004FB684800F0B8
S31500001B10F7FA5F4883F0ADFC03461A4600215C489D
S31500001B2083F01FFB594B93F82930002B53D00CE060
S31500001B30604800F0E5FA554B00225A76122399E0E8
S31500001B405D4800F0DDFA122394E0504B5B6A1946BB
S31500001B504E4B1B6A1A464E4883F0DCFA4C4883F01B
S31500001B6088FC0246494BDB6A9A422BD1484883F0EF
S31500001B7080FC03461A464649504883F0CBFA4F4844
S31500001B8083F077FC0346013B4C4AD3560D2B07D115
S31500001B904A4883F06EFC0346013B484A0021D15473
S31500001BA0474800F0ADFA3A4883F063FC03461A460C
S31500001BB00021374883F0D5FA344B93F83930002B9F
S31500001BC054D00DE03F4800F09BFA304B002283F8DA
S31500001BD0292012234EE03C4800F092FA122349E0F5
S31500001BE02A4B5B6B1946294B1B6B1A46284883F018
S31500001BF091FA274883F03DFC0246244BDB6B9A4260
S31500001C002BD1234883F035FC03461A4620492F483A
S31500001C1083F080FA2D4883F02CFC0346013B2B4AC7
S31500001C20D3560D2B07D1294883F023FC0346013BED
S31500001C30264A0021D154264800F062FA254800F0D1
S31500001C405FFA134883F015FC03461A460021104834
S31500001C5083F087FAD7F89C300CE01F4800F050FA62
S31500001C600A4B002283F83920122303E01B4800F0B8
S31500001C7047FA12231846A037BD4680BD8C9208004D
S31500001C8090920800FC71080020770800D02F0020F1
S31500001C902030002010730800C01E00204C7708007A
S31500001CA08C7508009C7708002C730800C02600205D
S31500001CB0D4770800247808007C780800C02E00201D
S31500001CC0B47808000879080060790800402F0020E1
S31500001CD09C79080088750800F0790800487A0800A1
S31500001CE080B5A6B000AF00233B603B1D92220021C9
S31500001CF0184683F036FA184B1A68184B1B68384694
S31500001D00174983F077FB3B46184600F0F9F93B4646
S31500001D101449184683F06EFB3B46184600F0F0F96E
S31500001D20114800F0EDF9114800F0EAF9104800F00A
S31500001D30E7F9104800F0E4F90F4800F0E1F90F4820
S31500001D4000F0DEF90E4800F0DBF90E4800F0D8F995
S31500001D5000BF9837BD4680BD8C920800909208005F
S31500001D60FC710800847A0800907A0800C07A08009E
S31500001D70EC7A0800187B0800487B0800747B080092
S31500001D80A47B0800F073080080B483B000AF7860CD
S31500001D907B681B78032B03D1104B01221A7016E0C7
S31500001DA07B681B78022B03D10D4B01221A700EE0C3
S31500001DB07B681B78002B03D10A4B01221A7006E0C0
S31500001DC07B681B78012B02D1074B01221A7000BFDA
S31500001DD00C37BD465DF8047B704700BFAC1E002083
S31500001DE0AD1E0020AE1E0020AF1E002080B582B0C2
S31500001DF000AF00237B6000BF1A4B1B78DBB283F079
S31500001E000103DBB2002B07D0174B1B78DBB283F044
S31500001E100103DBB2002BEFD1124B1B78DBB2002B98
S31500001E2011D01249124804F0EBFB124800F068F991
S31500001E30114804F0E5FB0F4800F062F9094B002257
S31500001E401A70032309E00D4804F0DAFB094800F094
S31500001E5057F9054B00221A707B6818460837BD46AD
S31500001E6080BD00BFAC1E0020AD1E0020C87C08004F
S31500001E705C74080074C80020307C0800787C080078
S31500001E8080B59CB000AF786039601C4A07F10C033E
S31500001E9011466022184683F03DF9002387F86F301B
S31500001EA020E097F86F305B009B0070333B4453F89B
S31500001EB0643C1946786883F0CAFA0346002B0CD1B5
S31500001EC03B6801221A6097F86F305B0001339B0074
S31500001ED070333B4453F8643C0CE097F86F300133A1
S31500001EE087F86F3097F86F300B2BDAD93B680022F2
S31500001EF01A607B6818467037BD4680BDBC7D0800F9
S31500001F0080B58CB000AF786039604FF6FF73FB8503
S31500001F104FF6FF737B840023BB8500233B8500239C
S31500001F207B8577E000237B62B7F92A307A68134411
S31500001F3093F900305B2B03D17B8DFB853B8DBB85F5
S31500001F40B7F92A307A68134493F900305D2B47D1EC
S31500001F507B8D7B84B7F92E30002B3BDBB7F9222033
S31500001F60B7F92E30D31A0133FB61FB69042B31D943
S31500001F70FB690A2B2ED8B7F92E307A68D11807F1EB
S31500001F800803FA69184683F07CFA07F10802FB6930
S31500001F90134400221A7007F1140207F108031146D0
S31500001FA01846FFF76DFFB8617B69002B12D0B7F9B1
S31500001FB02C303A681344B969184683F052FAB86966
S31500001FC083F057FA03469AB2BB8D13449BB23B8506
S31500001FD001237B624FF6FF73FB854FF6FF737B840D
S31500001FE07B6A002B10D1B7F92A307A681A44B7F900
S31500001FF0283039680B4492F900201A70B7F9283056
S315000020009BB201339BB23B85B7F92A309BB20133B1
S315000020109BB27B85B7F92A307A68134493F900306E
S31500002020002B7FF47FAFB7F928303A6813440022BB
S315000020301A7000BF3037BD4680BDFFFF80B584B043
S3150000204000AF78600023FB60114B00221A607868AD
S3150000205083F00FFA03461A4679680E4843F08AFB66
S31500002060F860FB68002B09D00B4B0C4AC4210C48C6
S3150000207081F0F1F80121012081F0F6F8044B1B688C
S31500002080002BF7D000BF00BF1037BD4680BD00BF94
S31500002090B8480020146A01201C7E0800507E080003
S315000020A0307E080080B582B000AF0023FB71124B72
S315000020B01B68012B08D103E00121012081F0D4F82F
S315000020C00D4B1B68002BF7D00B4B00221A60FB1D33
S315000020D001221946094843F015FB03E001210120BE
S315000020E081F0C2F8044B1B68002BF7D0FB795BB27A
S315000020F018460837BD4680BDBC480020146A01203A
S315000021000FB480B582B000AF0A2110480AF048FA31
S3150000211078607B68002B12D107F114033B600C49F1
S315000021203869FFF7EDFE3A6809490A4883F0E8F98D
S315000021300848FFF783FF05480AF07EFA786000BF7B
S315000021400837BD46BDE8804004B070471C760120C4
S31500002150C8580020C878002080B485B000AF7860E9
S315000021607B681B79042B06D0042B45DC012B3AD067
S31500002170022B3CD040E0234B1B68B3F5805F3AD27C
S31500002180214B5B78022B1ED87B689A681D4B1B6817
S31500002190D1B21E4AD1541E4B1B78012B0DD1194BBF
S315000021A01B681A4AD15C1B4B1B885A1C90B2194AF1
S315000021B010801A4649B2184B9954124B1B680133CA
S315000021C0104A136017E00F4B1B68104A1344FB605C
S315000021D07B689B689AB2FB681A800A4B1B680233BD
S315000021E0084A136007E00D4B01221A6004E00C4B0D
S315000021F001221A6000E000BF00BF1437BD465DF83B
S31500002200047B7047C0480020DCA10800B8380020D5
S31500002210C4580020C6580020C4480020BC480020EE
S31500002220B848002080B500AF4FF480520021044822
S3150000223082F097FF034B00221A6000BF80BD00BFEB
S31500002240B8380020C048002080B584B000AF002315
S31500002250BB60FF23FB73FFF7B3FAB860BB68002BC4
S3150000226000F0C981BC4BBD4A4221BD4880F0F3FF56
S315000022706123FB71BB4B1B68BB4A12681946BB48FE
S31500002280FFF73EFFBA49BB4883F0B4F8B948FFF7F9
S3150000229037FFB94B93F900301946B848FFF730FFBE
S315000022A097F90720D3B20133DBB2FB711346194607
S315000022B0B348FFF725FF97F90720D3B20133DBB206
S315000022C0FB7113461946AF48FFF71AFF97F9072027
S315000022D0D3B20133DBB2FB7113461946AA48FFF7A6
S315000022E00FFF97F90720D3B20133DBB2FB71134618
S315000022F01946A648FFF704FF97F90720D3B2013322
S31500002300DBB2FB7113461946A148FFF7F9FE97F9B0
S315000023100720D3B20133DBB2FB71134619469D4841
S31500002320FFF7EEFE97F90720D3B20133DBB2FB715C
S31500002330134619469848FFF7E3FE97F90720D3B2EC
S315000023400133DBB2FB71134619469448FFF7D8FEFA
S315000023509348FFF7D5FE934B1B7883F00103DBB25E
S31500002360002B03D0FFF79EFE0346FB7397F90F3051
S31500002370202B00F04081202BC0F22981682B00F32E
S315000023802681612BC0F22381613B072B00F21F815E
S3150000239001A252F823F000BFB9230000DB2300009E
S315000023A0212400009F240000EB2400006724000085
S315000023B037250000AD2500007A4B00221A70FFF782
S315000023C0A7FA00BFFFF76EFE0346FB7397F90F30BF
S315000023D0202BF7D10023FB730DE1724B00221A70FC
S315000023E00023BB71BB791846FEF7D6FDBB791846AC
S315000023F0FEF75CFEB860BB68002B05D0564B574A0B
S315000024007521574880F027FF00BFFFF74BFE0346B4
S31500002410FB7397F90F30202BF7D10023FB73EAE00B
S31500002420604B00221A700123BB71BB791846FEF778
S31500002430B3FDBB791846FEF739FEB860BB68002BC2
S3150000244005D0454B454A8421454880F004FF00BF2E
S31500002450FFF728FE0346FB7397F90F30202BF7D1C1
S315000024600023FB73C7E04F4B00221A700120FFF7D1
S315000024706DF8B860BB68002B05D0374B374A8F2103
S31500002480374880F0E8FE00BFFFF70CFE0346FB73FB
S3150000249097F90F30202BF7D10023FB73ABE0414BAC
S315000024A000221A70404B01221A700223BB71BB79BD
S315000024B01846FEF771FDBB791846FEF7F7FDB860C2
S315000024C0BB68002B05D0244B244A9F21244880F06A
S315000024D0C2FE00BFFFF7E6FD0346FB7397F90F3018
S315000024E0202BF7D10023FB7385E02E4B00221A70B8
S315000024F02D4B01221A700323BB71BB791846FEF7D8
S315000025004BFDBB791846FEF7D1FDB860BB68002BC2
S3150000251005D0114B114AAF21114880F09CFE00BF37
S31500002520FFF7C0FD0346FB7397F90F30202BF7D159
S315000025300023FB735FE01B4B00221A70FFF75EFA65
S3150000254000BFFFF7AFFD0346FB7397F90F30202B53
S31500002550F7D10023FB734EE0607E08001C80080064
S31500002560747E08008C92080090920800987E0800FD
S31500002570A07E0800C8980020689D0020D47E080030
S31500002580E87E0800F47E0800107F08002C7F080013
S31500002590507F08006C7F0800807F0800B07F08002D
S315000025A0BC7F0800C89C0020C99C0020174B002255
S315000025B01A70FFF795FB00BFFFF774FD0346FB7328
S315000025C097F90F30202BF7D10023FB7313E0104847
S315000025D0FFF796FDFFF766FD0346FB7397F90F308D
S315000025E0602BF7DD97F90F30682B00DDF2E700BFAF
S315000025F0064B01221A7097F90F30202B7FF438AE64
S31500002600002318461037BD4680BD00BFC89C002079
S31500002610E87F080080B400AF024B1846BD465DF85F
S31500002620047B70479081000180B584B002AFFF2320
S31500002630FB7100233B60224B1A68224B1B68224920
S31500002640224882F0D7FE2148FFF75AFD204B93F926
S3150000265000301A461F491D4882F0CCFE1B48FFF782
S315000026604FFD3B46184680F0DFFDFB781A46BB78E7
S3150000267019467B7800930B461749144882F0BAFE38
S315000026801248FFF73DFD1549104882F0B3FE0F488A
S31500002690FFF736FD0BE0FFF705FD0346FB7197F9E3
S315000026A00730202B07D097F90730002B03D097F976
S315000026B00730002BEFD1002318460837BD4680BDF2
S315000026C08C920800909208002C800800CC9C002078
S315000026D0689D002034800800508008005C80080057
S315000026E080B584B002AFFF23FB71FFF793FF38601C
S315000026F0284B1A68284B1B682849294882F07AFE1D
S315000027002748FFF7FDFC274B93F900301A46264968
S31500002710234882F06FFE2248FFF7F2FC2349204847
S3150000272082F068FE1E48FFF7EBFC962200211C484B
S3150000273082F017FD3B681B6819463B685B681846C4
S315000027403B689B681A463B68DB6801930092034628
S315000027500A461749124882F04DFE1148FFF7D0FC91
S315000027601448FFF7CDFC0BE0FFF79CFC0346FB711A
S3150000277097F90730202B07D097F90730002B03D0A5
S3150000278097F90730002BEFD1002318460837BD46CE
S3150000279080BD00BF8C920800909208002C80080033
S315000027A0CC9C0020689D0020888008009C80080042
S315000027B0C48008005C80080080B584B002AFFF23A7
S315000027C0FB711D4B1A681D4B1B681D491D4882F085
S315000027D011FE1C48FFF794FC1B4B93F900301A4678
S315000027E01A49184882F006FE1648FFF789FC184B6E
S315000027F00093184B184A1949124882F0FBFD1148FC
S31500002800FFF77EFC1648FFF77BFC0BE0FFF74AFC60
S315000028100346FB7197F90730202B07D097F907304D
S31500002820002B03D097F90730002BEFD10023184671
S315000028300837BD4680BD00BF8C9208009092080004
S315000028402C800800CC9C0020689D0020DC800800BD
S3150000285060810800EC80080024810800508108008F
S315000028605C80080080B582B000AF00233B60FF2388
S31500002870FB712A4B1A682A4B1B682A492A4882F0A0
S31500002880B9FD2948FFF73CFC284B93F900301A465E
S315000028902749254882F0AEFDFEF792FF3860FFF724
S315000028A0ADF838603B68002B06D02248FFF728FCBD
S315000028B02148FFF725FC28E03B68002B25D11F4B5C
S315000028C001221A701E48FFF71BFC1E480AF016FB71
S315000028D003461D4A136018E0184B1B7883F001036A
S315000028E0DBB2002B03D0FFF7DDFB0346FB7197F944
S315000028F00730202B0DD097F90730002B09D04FF465
S315000029007A714FF47A7080F0AFFC97F90730202B7C
S31500002910E2D1002318460837BD4680BD8C920800D8
S31500002920909208002C800800CC9C0020689D002016
S315000029307C8108009C8108005C800800629D002064
S315000029400482080010710120649D002080B582B0C9
S3150000295000AFFF23FB710023BB71364B1A68364B61
S315000029601B683649364882F045FD3548FFF7C8FBF7
S315000029703449334882F03EFD3148FFF7C1FB00235E
S315000029807B7118E097F905305A1C97F90610CBB2FF
S315000029900133DBB2BB712C4B53F831302B4928483D
S315000029A082F028FD2648FFF7ABFB97F90530DBB22E
S315000029B00133DBB27B7197F90530234ADB00134400
S315000029C05B68002BDED12248FFF79AFB26E0FFF773
S315000029D069FB0346FB7197F90730002B19D0FB7989
S315000029E0303BDBB2FB711B4AFB79137097F907305A
S315000029F0002B0EDD97F9072097F906309A4208DC7E
S31500002A0097F90730013B104ADB0013445B6898478F
S31500002A1008E04FF47A71C82080F026FC97F9073059
S31500002A20002BD4D1FB79303BDBB25BB218460837BA
S31500002A30BD4680BD8C920800909208008C820800EA
S31500002A406C9D00209482080000000020CC820800C3
S31500002A50D8820800689D002080B483B000AF234B65
S31500002A607B607B6804221A617B6804225A617B685A
S31500002A701F4A9A617B681F4ADA617B684FF40062DD
S31500002A801A627B6800229A627B6800225A627B681F
S31500002A900022DA627B68164A9A677B68164ADA670A
S31500002AA07B684022C3F880207B680022C3F8882018
S31500002AB07B680022C3F884207B680022C3F88C2040
S31500002AC07B6807330D4A106818607B680C4A1068EB
S31500002AD018609188927999809A717B6820229A7100
S31500002AE000BF0C37BD465DF8047B70476CA1002023
S31500002AF0DC82080044A2002044AA0020E8820800E4
S31500002B00EC82080080B588B000AFF860B9607A60E2
S31500002B100023BB61FB68DB687B61FB681B693B616B
S31500002B203A697B699A4205D93A697B69D31A013BAE
S31500002B30FB6107E0FB689A6839697B69CB1A134425
S31500002B40013BFB61FB689A687B69D31AFA69934279
S31500002B5028BF1346FB61FA697B68934228BF134678
S31500002B60FB61FB685A687B691344FA69B9681846C1
S31500002B7082F0D0FABA69FB691344BB61BA68FB6993
S31500002B801344BB607A68FB69D31A7B607A69FB6978
S31500002B9013447B61FB689B687A699A4201D10023E2
S31500002BA07B61FB687A69DA607B68002BB5D1BB690B
S31500002BB018462037BD4680BD80B588B000AFF860A6
S31500002BC0B9607A60FB68DB68FB61FB689A68FB6941
S31500002BD0D31ABB61BA697B689A420ED9FB685A68F8
S31500002BE0FB6913447A68B968184682F093FAFA6961
S31500002BF07B681A44FB68DA601AE0BB697B61FB6894
S31500002C005A68FB6913447A69B968184682F082FAF1
S31500002C107A68BB69D31A7B61FB685868BA68BB6976
S31500002C2013447A69194682F075FAFB687A69DA60A4
S31500002C3000BF2037BD4680BD80B487B000AF786046
S31500002C407B681B693B617B68DB68FB603A69FB68F4
S31500002C509A4208D87B689A68FB68D21A3B69134483
S31500002C60013B7B6104E03A69FB68D31A013B7B6157
S31500002C707B6918461C37BD465DF8047B7047FFFF2D
S31500002C8080B588B000AFF860B9607A60BB68BB6198
S31500002C90FB685A1C13465B001344DB001F4A1344AF
S31500002CA07B617B695B69022B29D0022B2ED8002B16
S31500002CB002D0012B13D029E07869FFF7BDFF3861F8
S31500002CC03A697B689A4202D20023FB6121E07B6865
S31500002CD0FB617A68B9697869FFF76EFF19E0786970
S31500002CE0FFF7AAFF38617A683B69934228BF13460B
S31500002CF0FB61FA69B9697869FFF75EFF09E07A68EE
S31500002D00B9697869FFF7FEFEF86102E00023FB610E
S31500002D1000BFFB6918462037BD4680BD6CA1002068
S31500002D2080B586B000AFF860B9607A600D4B93F954
S31500002D300030002B01D1FFF78FFEEFF311834FF028
S31500002D40200181F311887B617A68B968F868FFF71A
S31500002D5097FF38617B6983F311883B6918461837FA
S31500002D60BD4680BD6CA1002080B584B000AF786000
S31500002D700B46FB707B689B68FB60FB685A1C7B6894
S31500002D805B689A420ED87B681A68FB681344FA7827
S31500002D901A70FB685A1C7B689A607B68DB685A1C51
S31500002DA07B68DA607B689A687B685B689A4215D1B3
S31500002DB07B6818697B6819687B689B681A46FFF709
S31500002DC0AFFF02467B689B689A4204D07B684FF04F
S31500002DD0FF32DA6002E07B6800229A6000BF10379B
S31500002DE0BD4680BD80B58AB000AFF860B9607A6034
S31500002DF03B60BB683B6201237B620123FB6107E00A
S31500002E003A6A7B68B2FBF3F33B62FB690133FB6111
S31500002E103A6A7B689A42F3D23A68FB699A4201D9C8
S31500002E203B68FB617B6B03F00103002B26D13B6BF8
S31500002E30002B23D07B6B03F00203002B05D03B68ED
S31500002E40002B02D13023FB7601E02023FB760CE039
S31500002E503B6B013B3B6397F91B301946F868FFF75C
S31500002E6083FFFB68DB68002B07DB3B6B002B05D081
S31500002E70FA693B6B9A42EBD300E000BFFB68DB6864
S31500002E80002B56DB3B68012B03D93B68013B3B60BB
S31500002E9009E0BA687B6AB2FBF3F37B617A697B6807
S31500002EA09A4200D205E07B6A7A6802FB03F37B62F2
S31500002EB0E8E7BA687B6AB2FBF3F37B617B697A6AFF
S31500002EC002FB03F3BA68D31ABB601C4A7B6913443E
S31500002ED093F900301946F868FFF746FFFB68DB6890
S31500002EE0002B08DB7A6A7B68B2FBF3F37B627B6AB2
S31500002EF0002BDED100E000BF7B6B03F00103002B4B
S31500002F0017D03B6B002B14D00AE03B6B013B3B63B5
S31500002F102021F868FFF728FFFB68DB68002B07DB3A
S31500002F203B6B002B05D0FA693B6B9A42EDD300E070
S31500002F3000BF00BF2837BD4680BD00BFF482080031
S31500002F4080B588B002AFF860B9607A603B60BB6854
S31500002F50002BB8BF5B423B6101237B6107E07B68C6
S31500002F603A6992FBF3F33B617B6901337B617B68D2
S31500002F703A699A42F3DA3A687B699A4201D93B6820
S31500002F807B613B6A002B0AD0BB68002B04DB7B6AA3
S31500002F9003F00403002B02D03B6A013B3B627B6AD1
S31500002FA003F00203002B02D03B68002B1CD07B6A87
S31500002FB003F00103002B17D13B6A002B14D00AE063
S31500002FC03B6A013B3B622021F868FFF7CDFEFB68B8
S31500002FD0DB68002B07DB3B6A002B05D07A693B6A6E
S31500002FE09A42EDD300E000BFFB68DB68002B4ADBAA
S31500002FF0BB68002B07DABB685B42BB602D21F86813
S31500003000FFF7B2FE08E07B6A03F00403002B03D04F
S315000030102B21F868FFF7A8FEFB68DB68002B32DB84
S315000030207B6A03F00203002B1FD07B6A03F00103C7
S31500003030002B1AD13B68002B17D13B6A002B14D00A
S315000030400AE03B6A013B3B623021F868FFF78CFEE1
S31500003050FB68DB68002B07DB3B6A002B05D07A692F
S315000030603B6A9A42EDD300E000BFFB68DB68002BA9
S3150000307009DBB9687B6A01933B6A00933B687A680F
S31500003080F868FFF7AFFE00BF1837BD4680BDFFFFEB
S3150000309080B5D2B002AF07F5A073A3F59A73186096
S315000030A007F5A073A3F59C73196007F5A073A3F544
S315000030B09E731A6007F11003C7F810314FF480733E
S315000030C0C7F814310023C7F8183107F5A073A3F524
S315000030D09A731B68C7F820310023C7F81C3107F51F
S315000030E0A073A3F59C731B681B7887F83F3107F51F
S315000030F0A073A3F59C7307F5A072A2F59C721268E3
S3150000310001321A6097F93F31002B00F05A8297F985
S315000031103F31252B40F047820023C7F83031012389
S31500003120C7F8383107F5A073A3F59C731B681B78A5
S3150000313087F83F3197F93F31233B0D2B66D801A223
S3150000314052F823F0E93100000D3200000D32000084
S315000031500D3200000D3200000D3200000D3200006D
S315000031600D320000C53100000D3200007D31000037
S315000031700D3200000D320000A1310000D7F83031C9
S3150000318043F00103C7F8303107F5A073A3F59C732C
S3150000319007F5A072A2F59C72126801321A6039E036
S315000031A0D7F8303143F00203C7F8303107F5A07382
S315000031B0A3F59C7307F5A072A2F59C721268013202
S315000031C01A6027E0D7F8303143F00403C7F83031EE
S315000031D007F5A073A3F59C7307F5A072A2F59C7280
S315000031E0126801321A6015E0D7F8303143F008034F
S315000031F0C7F8303107F5A073A3F59C7307F5A072E5
S31500003200A2F59C72126801321A6003E00023C7F827
S31500003210383100BFD7F83831002B83D10023C7F8E7
S315000032202C3107F5A073A3F59C731B681B7887F8F0
S315000032303F3197F93F312F2B1CDD97F93F31392B61
S3150000324018DC07F5A073A3F59C7307F5A072A2F529
S315000032509C72126801321A60D7F82C2113469B0023
S3150000326013445B001A4697F93F311344303BC7F8C5
S315000032702C31D6E70023C7F8343107F5A073A3F540
S315000032809C731B681B7887F83F3197F93F312E2BCB
S3150000329033D107F5A073A3F59C7307F5A072A2F5C9
S315000032A09C72126801321A6007F5A073A3F59C732D
S315000032B01B681B7887F83F3197F93F312F2B1CDDB0
S315000032C097F93F31392B18DC07F5A073A3F59C73EA
S315000032D007F5A072A2F59C72126801321A60D7F83F
S315000032E0342113469B0013445B001A4697F93F317D
S315000032F01344303BC7F83431D6E707F5A073A3F57E
S315000033009C731B681B7887F83F3197F93F316C2B0C
S3150000331003D097F93F31682B13D107F5A073A3F5B6
S315000033209C7307F5A072A2F59C72126801321A60AE
S3150000333007F5A073A3F59C731B681B7887F83F31CC
S31500003340E3E797F93F31252B00F01981252BC0F2D1
S315000033501D81782B00F31A81582BC0F21781583B38
S31500003360202B00F2138101A252F823F0AB340000A7
S315000033708D3500008D3500008D3500008D3500003F
S315000033808D3500008D3500008D3500008D3500002F
S315000033908D3500008D350000F13300002B34000020
S315000033A08D3500008D3500008D3500008D3500000F
S315000033B08D3500008D3500008D3500008D350000FF
S315000033C08D3500008D3500008D3500004535000037
S315000033D08D3500008D350000EB3400008D35000082
S315000033E06B3400008D3500008D350000AB340000D5
S315000033F007F5A073A3F59E731B681B68191D07F5D7
S31500003400A072A2F59E72126811601B68C7F8383167
S31500003410D7F8383187F8273197F9272107F58873C8
S3150000342011461846FFF7A0FCB1E007F5A073A3F517
S315000034309E731B681B68191D07F5A072A2F59E7284
S31500003440126811601B68C7F8383107F58870D7F81D
S3150000345030310193D7F82C310093D7F834310A2252
S31500003460D7F83811FFF76CFD91E007F5A073A3F5C7
S315000034709E731B681B68191D07F5A072A2F59E7244
S31500003480126811601B68C7F83831D7F8381107F58C
S315000034908870D7F830310193D7F82C310093D7F8DC
S315000034A034310A22FFF79EFC71E007F5A073A3F5FD
S315000034B09E731B681B68191D07F5A072A2F59E7204
S315000034C0126811601B68C7F83831D7F8381107F54C
S315000034D08870D7F830310193D7F82C310093D7F89C
S315000034E034311022FFF77EFC51E007F5A073A3F5F7
S315000034F09E731B681B68191D07F5A072A2F59E72C4
S31500003500126811601B68C7F82831D7F828311B7874
S3150000351087F83F31D7F828310133C7F8283197F9B2
S315000035203F31002B0CD097F93F2107F588731146E0
S315000035301846FFF719FCD7F81C31002BE5DA26E010
S3150000354000BF24E007F5A073A3F59E731B681B68F4
S31500003550191D07F5A072A2F59E72126811601B680C
S31500003560C7F83831D7F8381107F58870002301936A
S315000035700823009308231022FFF734FC07E007F521
S31500003580887325211846FFF7EFFB00E000BF07F51B
S31500003590A073A3F59C7307F5A072A2F59C7212683E
S315000035A001321A6007E097F93F2107F58873114643
S315000035B01846FFF7D9FBD7F81C31002BBFF68FADA5
S315000035C000E000BFD7F81C31002B15DDD7F8183105
S315000035D0002B0AD0D7F8182107F1100107F5A073C0
S315000035E0A3F59A731868FFF79BFBD7F81C31D7F839
S315000035F018211344C7F81C31D7F81C31184607F5B3
S31500003600A077BD4680BD00BF0EB480B585B000AFC3
S31500003610786007F12003BB6007F108031A46F969D1
S315000036207868FFF735FDF860FB6818461437BD4625
S31500003630BDE8804003B0704790B589B000AF3A60EE
S315000036401A460346FB710B46BB7113467B714FF45A
S315000036507A73FB83214B00221A70BB1DBB600123CA
S315000036603B743B68FB607B797B741D4B9B681C69D4
S315000036701B4B186807F108030ECBA047B861BB695E
S31500003680002B13D109E0FB8B013BFB83FB8B002B4B
S3150000369008D0012101207FF0E7FD104B1B78002B9D
S315000036A0F1D000E000BF0D4B00221A700B4B1B78C7
S315000036B0022B01D11223BB6100237B6102E07B69EF
S315000036C001337B6197F905307A699A42F7DDBB6968
S315000036D05BB218462437BD4690BD00BF84AA0020C1
S315000036E064A3080080B584B000AF3A601A4603466A
S315000036F0FB710B46BB7113467B714FF47A73FB81EA
S31500003700234ABB79137097F905301A463968214860
S3150000371081F000FD204B00221A70204B9B68DB686D
S315000037201E4A106897F90520013219499847034641
S315000037307B7397F90D30002B13D109E0FB89013B10
S31500003740FB81FB89002B08D0012101207FF08CFD35
S31500003750114B1B78002BF1D000E000BF0E4B00226E
S315000037601A700D4B1B78022B01D112237B73002399
S31500003770BB6002E0BB680133BB6097F90530BA68ED
S315000037809A42F7DD97F90D3018461037BD4680BDD1
S3150000379088AA002089AA002084AA002064A3080021
S315000037A080B483B000AF78607B681B79002B03D1AF
S315000037B0064B01221A7002E0044B02221A7000BF67
S315000037C00C37BD465DF8047B704700BF84AA002015
S315000037D080B500AF00F006F8FFF7B8F80A2007F04A
S315000037E055FCF9E780B582B000AF00237B6002F09C
S315000037F073FE78607B68002B16D01549154802F0D9
S31500003800FFFE1548FEF77CFC144802F0F9FE12484C
S31500003810FEF776FC7B68002B13D07A6810490020EF
S31500003820FFF7F2FE00BE0CE009490E4802F0E8FE82
S315000038300948FEF765FC0C4802F0E2FE0648FEF772
S315000038405FFC00F013F800BF0837BD4680BD00BF1F
S31500003850A88308000483080074C800202083080099
S3150000386038830800588308007483080080B582B046
S3150000387000AF00237B60114911487DF031F9786073
S315000038807B68002B15D00F490F4802F0B9FE0F4890
S31500003890FEF736FC0E4802F0B3FE0C48FEF730FC8D
S315000038A07B68002B05D07A680A490020FFF7ACFE3A
S315000038B000BE00BF0837BD4680BD00BFB4A10800EA
S315000038C0D0690120B88308000483080074C800206A
S315000038D08C8308003883080080B586B000AF786016
S315000038E0396041F288320021386881F03AFC4FF4A1
S315000038F0805200212B4881F034FC00237B61002399
S315000039003B610023FB6000237B6109E07A687B69E9
S31500003910134493F900300D2B06D07B6901337B618C
S315000039207B69312BF2D900E000BF7B6901337B61F3
S3150000393025E07A687B69134493F900302D2B24D057
S315000039407A687B69134493F900300D2B14D07A689A
S315000039507B69134493F900300A2B0DD07A687B6992
S31500003960134493F90030D9B20E4A3B6913440A4610
S315000039701A703B6901333B617B6901337B617B696B
S3150000398041F287329342D4D900E000BF3A683969E0
S31500003990044802F0B2FCF860FB6818461837BD46CA
S315000039A080BD00BFBCAA002080B485B000AF03462E
S315000039B00A46FB8013467B711449FB881B0A9BB29F
S315000039C01A46FB88DBB21201134451F82330FB6020
S315000039D0FB6823F0011323F44043FB607B79FA680C
S315000039E01343BB600948FB881B0A9BB21946FB8838
S315000039F0DBB2BA6842F0040209010B4440F8232006
S31500003A0000BF1437BD465DF8047B704700080840C8
S31500003A1080B485B000AF0023FB60EFF310837B60BA
S31500003A207B68FB600123BB60BB6883F3108800BF23
S31500003A300D4B1B68002B05D10C4B0022DA700B4B8B
S31500003A404022DA70084B1B680133074A1360FB6893
S31500003A503B603B6883F3108800BF00BF1437BD4648
S31500003A605DF8047B704700BF349D0120000D0840BF
S31500003A7080B485B000AF0023FB60EFF310837B605A
S31500003A807B68FB600123BB60BB6883F3108800BFC3
S31500003A900F4B1B68002B04D00D4B1B68013B0C4AD7
S31500003AA013600B4B1B68002B05D10A4B0022DA7002
S31500003AB0084B8022DA70FB683B603B6883F3108812
S31500003AC000BF00BF1437BD465DF8047B704700BFDA
S31500003AD0349D0120000D084080B500AF00F0E2F8EB
S31500003AE000F09EF8642007F0D1FA01F051FA642044
S31500003AF007F0CCFA01F05EFB4FF47A714FF47A705E
S31500003B007FF0B2FB2D4809F0F9F903462C4A136001
S31500003B104FF47A714FF47A707FF0A6FB01F020FC27
S31500003B2001F08EF8032001F0EFF84FF47A714FF4AC
S31500003B307A707FF099FB234809F0E0F90346204AA2
S31500003B4013604FF47A714FF47A707FF08DFB01F0B9
S31500003B503FFC01F07FFC4FF47A714FF47A707FF0EE
S31500003B6083FB194809F0CAF90346154A13604FF456
S31500003B707A714FF47A707FF077FB144809F0BEF93A
S31500003B8003460F4A13604FF47A714FF47A707FF050
S31500003B906BFB0F4809F0B2F90346094A13604FF46C
S31500003BA07A714FF47A707FF05FFB00F013F801F042
S31500003BB02FFA322007F06AFAF9E700BFA06D01205C
S31500003BC0BCBA0020006C0120306B0120D06C0120B3
S31500003BD0706F012080B582B000AF00237B600C4877
S31500003BE07CF0ECFA7B68002B07D17968094802F073
S31500003BF007FD0948FEF784FA06E07968074802F0EF
S31500003C00FFFC0548FEF77CFA00BF0837BD4680BDBD
S31500003C1050760120C483080074C80020F48308008D
S31500003C2080B582B000AF1B4B1B697B607B689B68CD
S31500003C301B687A6810687A68526811469847386037
S31500003C403B68002B05D0144B144A672114487FF0BB
S31500003C5002FB104B5B68002B09D00E4B5B681868A3
S31500003C600C4B5B6859681C23002208F05FFE094B69
S31500003C701B68002B09D0074B1B681868054B1B688F
S31500003C8059683423012208F0CFFB00BF0837BD4630
S31500003C9080BD00BF5001002024840800588408001D
S31500003CA03884080080B500AFFFF7B2FE012140F26C
S31500003CB00630FFF779FE012140F20730FFF774FE68
S31500003CC04FF47A7132207FF0CFFA002140F20630AD
S31500003CD0FFF76AFE002140F20730FFF765FE4FF45A
S31500003CE07A7132207FF0C0FA012140F20630FFF7E8
S31500003CF05BFE012140F20730FFF756FE4FF47A7162
S31500003D0032207FF0B1FAFFF7B3FE00BF80BDFFFFA0
S31500003D1080B500AF4FF47A7132207FF0A5FA00F03B
S31500003D20BDFA1A4800F0C4FA194800F0FFFA19481B
S31500003D3000F00AFB174B93ED005B93ED026B93EDDE
S31500003D40047BB0EE450AF0EE650AB0EE461AF0EED8
S31500003D50661AB0EE472AF0EE672A00F057FB53ECDE
S31500003D60102B1046194680F0C1FF03460A4A13601D
S31500003D700A4800F0EFFB0A4800F06CFC4FF47A7139
S31500003D8032207FF071FA00BF80BD00BFF8BA002074
S31500003D90E0BA002010BB0020C0BA002028BB0020DB
S31500003DA040BB002080B500AF00F0D5FE2A494FF099
S31500003DB000024FF00003C1E9002327494FF000023B
S31500003DC04FF00003C1E9022323494FF000024FF0F0
S31500003DD00003C1E9042321494FF00002204BC1E949
S31500003DE000231E494FF000021D4BC1E902231B4967
S31500003DF04FF000021A4BC1E904231A4B01221A7034
S31500003E0019494FF000024FF00003C1E9002316499B
S31500003E104FF000024FF00003C1E9022312494FF0B0
S31500003E2000024FF00003C1E90423104B01221A706F
S31500003E300F4B10221A70002000F06CFC01220921A1
S31500003E40022000F0E5FD01220921022000F0E0FD3C
S31500003E500023184680BD00BF58BB002070BB002061
S31500003E600000F03FDCBA002088BB0020DDBA00204D
S31500003E70A0BB002080B58EB000AF7A494FF000029B
S31500003E804FF00003C1E9002376494FF000024FF0DE
S31500003E900003C1E9022373494FF000024FF000030B
S31500003EA0C1E90423062000F0B7F9002000F080F9EC
S31500003EB0002000F0F3F8062000F026F94FF47A719E
S31500003EC032207FF0D1F900237B6332E000F0E6F97F
S31500003ED007F11803184600F0EBF9624BD3E900012D
S31500003EE0D7E9062380F06AFA02460B465D49C1E926
S31500003EF000235C4BD3E90201D7E9082380F05EFA80
S31500003F0002460B465749C1E90223564BD3E9040141
S31500003F10D7E90A2380F052FA02460B465149C1E915
S31500003F2004234FF47A710A207FF09EF97B6B0133EC
S31500003F307B637B6B312BC9DD4A4BD3E900014FF024
S31500003F400002494B80F01AFD02460B464549C1E97D
S31500003F500023444BD3E902014FF00002424B80F0AC
S31500003F600DFD02460B463F49C1E902233D4BD3E90D
S31500003F7004014FF000023C4B80F000FD02460B4668
S31500003F803849C1E90423374BD3E904014FF0000255
S31500003F90364B80F011FA02460B463249C1E904233A
S31500003FA000233B632FE000F079F93B46184600F00A
S31500003FB085FA2F4BD3E90001D7E9002380F0FEF9FB
S31500003FC002460B462A49C1E90023294BD3E90201DF
S31500003FD0D7E9022380F0F2F902460B462449C1E9EB
S31500003FE00223234BD3E90401D7E9042380F0E6F941
S31500003FF002460B461E49C1E90423012001F096FB47
S315000040003B6B01333B633B6B312BCCDD184BD3E968
S3150000401000014FF00002144B80F0B0FC02460B4644
S315000040201349C1E90023124BD3E902014FF0000204
S315000040300D4B80F0A3FC02460B460D49C1E9022355
S315000040400B4BD3E904014FF00002074B80F096FCBE
S3150000405002460B460649C1E9042300BF3837BD4670
S3150000406080BD00BF58BB0020000049400000D04082
S3150000407088BB002080B582B000AF0021002000F090
S31500004080E2FC0346FB71FB79EA2B01D1012300E038
S31500004090002318460837BD4680BDFFFF80B582B0B5
S315000040A000AF0346FB711421022000F0CCFC03464E
S315000040B01A46134B1A70124B1B7823F00603DAB21A
S315000040C00F4B1A70FB795B005AB20D4B1B785BB233
S315000040D013435BB2DAB20A4B1A70094B1B781A46C5
S315000040E01421022000F094FCFB79012202FA03F36A
S315000040F0DAB2044B1A7000BF0837BD4680BD00BF58
S31500004100DEBA0020DCBA002080B582B000AF0346DC
S31500004110FB711421022000F096FC03461A461B4B45
S315000041201A70FB79082B0ED1184B1B7823F001036C
S31500004130DAB2164B1A70154B1B781A461421022058
S3150000414000F066FC1FE0114B1B7843F00103DAB266
S315000041500E4B1A700D4B1B7823F03803DAB20B4B5B
S315000041601A70FB79DB005AB2084B1B785BB213431B
S315000041705BB2DAB2054B1A70044B1B781A4614214F
S31500004180022000F045FC0837BD4680BDDEBA00209F
S3150000419080B582B000AF0346FB80FB88DBB21A46CF
S315000041A01021022000F034FC00BF0837BD4680BD58
S315000041B080B582B000AF0346FB710121022000F0FA
S315000041C042FC03461A46124B1A70114B1B7823F019
S315000041D00603DAB20E4B1A70FB795B00DAB20C4BAF
S315000041E01B781343DAB20A4B1A70094B1B781A462E
S315000041F00121022000F00CFCFB79012202FA03F3F4
S31500004200DAB2044B1A7000BF0837BD4680BD00BF46
S31500004210DEBA0020DDBA002080B582B000AF0346CA
S31500004220FB710121022000F00EFC03461A461A4BD0
S315000042301A70FB79082B0ED1174B1B7823F001035C
S31500004240DAB2154B1A70144B1B781A46012102205C
S3150000425000F0DEFB1DE0104B1B7843F00103DAB2E1
S315000042600D4B1A700C4B1B7823F03803DAB20A4B4D
S315000042701A70FB79DB00DAB2074B1B781343DAB20C
S31500004280054B1A70044B1B781A460121022000F0D8
S31500004290BFFB0837BD4680BDDEBA002080B500AF43
S315000042A0024800F00FFC00BF80BD00BFC8BA002066
S315000042B080B582B000AF78601B4B1B781B021AB228
S315000042C0194B5B781BB213431BB2184680F0C2F938
S315000042D002460B467968C1E90023134B9B781B0203
S315000042E01AB2114BDB781BB213431BB2184680F08F
S315000042F0B1F902460B467968C1E902230A4B1B79DC
S315000043001B021AB2084B5B791BB213431BB2184649
S3150000431080F0A0F902460B467968C1E9042300BF84
S315000043200837BD4680BD00BFC8BA002080B582B040
S3150000433000AF78607868FFF7BBFF786800F068FA2E
S3150000434000BF0837BD4680BDB0B588B000AF786005
S3150000435007F108031846FFF7E9FFD7E90245294B9D
S315000043601B78184680F076F902460B462046294609
S3150000437080F0DAF902460B46104619464FF0000265
S31500004380214B80F0FBFA02460B467968C1E900230F
S31500004390D7E904451B4B1B78184680F05BF90246AB
S315000043A00B462046294680F0BFF902460B461046CA
S315000043B019464FF00002144B80F0E0FA02460B4615
S315000043C07968C1E90223D7E906450E4B1B781846E2
S315000043D080F040F902460B462046294680F0A4F9B3
S315000043E002460B46104619464FF00002064B80F077
S315000043F0C5FA02460B467968C1E9042300BF203797
S31500004400BD46B0BDDCBA00200000D040B0B588B0D3
S3150000441000AFB0EE405AF0EE605AB0EE416AF0EEF0
S31500004420616AB0EE427AF0EE627A87ED005B87ED64
S31500004430026B87ED047B4FF000024FF00003C7E9E3
S315000044400623D7E90001D7E9002380F06DF902467B
S315000044500B4614461D46D7E90201D7E9022380F030
S3150000446063F902460B46204629467FF0A7FF02461F
S315000044700B4614461D46D7E90401D7E9042380F00C
S3150000448053F902460B46204629467FF097FF02461F
S315000044900B4643EC172BB0EE470AF0EE670A81F0A5
S315000044A06FFD87ED060BD7E9062343EC172BB0EE1D
S315000044B0470AF0EE670A2037BD46B0BD80B582B028
S315000044C000AF78601B4B9B791B021AB2194BDB7944
S315000044D01BB213431BB2184680F0BCF802460B46CB
S315000044E07968C1E90023134B1B7A1B021AB2114BE0
S315000044F05B7A1BB213431BB2184680F0ABF8024638
S315000045000B467968C1E902230A4B9B7A1B021AB251
S31500004510084BDB7A1BB213431BB2184680F09AF89D
S3150000452002460B467968C1E9042300BF0837BD4639
S3150000453080BD00BFC8BA002080B582B000AF7860E9
S315000045407868FFF7BBFF786800F0E2F900BF08372C
S31500004550BD4680BDB0B582B000AF78607868FFF721
S31500004560EBFF7B68D3E90045374B1B78184680F094
S3150000457071F802460B462046294680F0D5F80246D9
S315000045800B46104619464FF00002304B80F0CCF82F
S3150000459002460B46104619464FF000022C4B80F09F
S315000045A0EDF902460B467968C1E900237B68D3E939
S315000045B00245254B1B78184680F04CF802460B4600
S315000045C02046294680F0B0F802460B4610461946AA
S315000045D04FF000021D4B80F0A7F802460B4610462E
S315000045E019464FF000021A4B80F0C8F902460B46F6
S315000045F07968C1E902237B68D3E90445124B1B782D
S31500004600184680F027F802460B462046294680F0D9
S315000046108BF802460B46104619464FF000020B4B2C
S3150000462080F082F802460B46104619464FF000020B
S31500004630074B80F0A3F902460B467968C1E90423CB
S3150000464000BF0837BD46B0BDDDBA002000406F4050
S315000046500000E04080B584B000AF78602B4BDB7B78
S315000046601B021AB2294B9B7B1BB21343FB81274BC0
S315000046705B7C1B021AB2254B1B7C1BB21343BB810E
S31500004680224BDB7C1B021AB2204B9B7C1BB21343D2
S315000046907B81B7F90E3007EE903AF8EEE77A9FED98
S315000046A01C7A67EE877A17EE900A7FF0E5FF0246DE
S315000046B00B467968C1E90023B7F90C3007EE903A4A
S315000046C0F8EEE77A9FED127A67EE877A17EE900A90
S315000046D07FF0D2FF02460B467968C1E90223B7F99B
S315000046E00A3007EE903AF8EEE77A9FED097A67EE20
S315000046F0877A17EE900A7FF0BFFF02460B4679686D
S31500004700C1E9042300BF1037BD4680BDC8BA0020EA
S315000047108716193E80B582B000AF0346FB710621AD
S31500004720002000F090F903461A460F4B1A70FB79E9
S31500004730002B07D00C4B1B7843F04003DAB20A4B30
S315000047401A7006E0084B1B7823F04003DAB2064BDA
S315000047501A70054B1B781A460621002000F058F9FE
S3150000476000BF0837BD4680BDDEBA002080B500AF69
S3150000477000F008FA00F03EF800F0EDF90020FFF72F
S31500004780C9FF01220921022000F042F900F0FAF9DE
S3150000479000F00EF803461A4644F609039A4201D081
S315000047A0002303E0082000F00BF80123184680BD23
S315000047B080B500AF002000F0B2F90346184680BD70
S315000047C080B582B000AF0346FB71FB7919463120F4
S315000047D000F088F94FF47A710A207EF045FDFB79E6
S315000047E0002B03D00821112000F0DFF900BF0837A5
S315000047F0BD4680BD80B500AF0121322000F072F9C0
S315000048004FF47A7164207EF02FFD00BF80BDFFFF5C
S315000048102DE9B04382B000AF78607B68D3E90045EC
S31500004820384BD3E90089384B1B7818467FF012FFC6
S3150000483002460B464046494680F0A0F802460B4623
S31500004840204629467FF0B8FD02460B46104619461B
S315000048502E4BD3E9002380F091F802460B46796887
S31500004860C1E900237B68D3E90245264BD3E90289D7
S31500004870254B1B7818467FF0EDFE02460B46404658
S31500004880494680F07BF802460B46204629467FF0D3
S3150000489093FD02460B46104619461C4BD3E90223EC
S315000048A080F06CF802460B467968C1E902237B6802
S315000048B0D3E90445134BD3E90489134B1B781846F7
S315000048C07FF0C8FE02460B464046494680F056F841
S315000048D002460B46204629467FF06EFD02460B46F1
S315000048E010461946094BD3E9042380F047F80246DF
S315000048F00B467968C1E9042300BF0837BD46BDE809
S31500004900B08300BF58BB0020DCBA002070BB00207B
S315000049102DE9B04382B000AF78607B68D3E90045EB
S315000049202A4BD3E900892A4B1B7818467FF092FE62
S3150000493002460B464046494680F020F802460B46A2
S31500004940204629467FF038FD02460B467968C1E9C4
S3150000495000237B68D3E902451C4BD3E902891C4B33
S315000049601B7818467FF076FE02460B4640464946BF
S3150000497080F004F802460B46204629467FF01CFDCF
S3150000498002460B467968C1E902237B68D3E90445F0
S315000049900E4BD3E904890E4B1B7818467FF05AFE5E
S315000049A002460B46404649467FF0E8FF02460B4664
S315000049B0204629467FF000FD02460B467968C1E98C
S315000049C0042300BF0837BD46BDE8B08388BB00207E
S315000049D0DDBA002080B582B000AF0346FB710B4BF9
S315000049E01B78FA799A420DD0084AFB791370074B67
S315000049F01B781B01DAB2054B1A70012203497F208E
S31500004A0000F090FD00BF0837BD4680BDC4BA002047
S31500004A1080B584B000AF0346FB710B46BB711346ED
S31500004A207B71FB791846FFF7D5FF0023FB60791DE4
S31500004A30BB790122184600F075FDF860FB68184640
S31500004A401037BD4680BD80B584B000AF03460A4628
S31500004A50FB711346BB71FB791846FFF7BBFF0023BA
S31500004A60FB7307F10F01BB790122184600F014FD14
S31500004A70FB7B18461037BD4680BD80B584B000AFBD
S31500004A8003460A46FB711346BB71FB791846FFF7CE
S31500004A90A1FF0023FB730023BB730023BB8107F137
S31500004AA00801BB790222184600F0F6FC3B7AFB733C
S31500004AB07B7ABB73BB7BBB81B7F90C3018461037CA
S31500004AC0BD4680BD80B582B000AF78600020FFF79C
S31500004AD081FF142279682D2000F0DEFC00BF083724
S31500004AE0BD4680BD80B582B000AF03460A46FB7165
S31500004AF01346BB710C2203210320FFF789FFFB79C4
S31500004B001A4604210320FFF783FFBB791A460621C4
S31500004B100320FFF77DFF00BF0837BD4680BD80B587
S31500004B2084B000AF0346FB710023FB81FB790221B1
S31500004B30184600F03AF83B210020FFF79EFF034697
S31500004B40FB810821112000F030F8B7F90E30184625
S31500004B501037BD4680BD80B582B000AF80220621E9
S31500004B600020FFF755FF0346FB71322006F08EFA50
S31500004B70FB79002B0CBF01230023DBB21846083754
S31500004B80BD4680BD80B500AF202203210020FFF77F
S31500004B903FFF072201210320FFF73AFF4FF47A7106
S31500004BA00A207EF061FB00BF80BD80B582B000AFF9
S31500004BB003460A46FB711346BB718C220321032070
S31500004BC0FFF726FFFB791A4604210320FFF720FF93
S31500004BD0BB7963F07F03DBB21A4605210320FFF79A
S31500004BE017FF4FF47A710A207EF03EFB00BF0837AC
S31500004BF0BD4680BD80B500AFFFF78AF83C2006F0C1
S31500004C0045FAF9E780B500AF0C4B9B681B680B4A69
S31500004C1012680A49496810469847084B9B681B6901
S31500004C20064A126810469847044B9B685B68034A1D
S31500004C3012681046984700BF80BD00BF6CA60800EA
S31500004C4080B584B000AFFFF7DDFF00F03DF8034606
S31500004C5083F00103DBB2002B01D000232CE0184ABD
S31500004C603B1D92E803001860043319703B1D0521B3
S31500004C70184600F0A6F80023FB6019E04CF2F77026
S31500004C8000F086F83B460321184600F0A9F83B7869
S31500004C901B027A78134307EE903AF8EEE77A094A50
S31500004CA0FB689B001344C3ED007AFB680133FB608D
S31500004CB0FB68032BE2DD012318461037BD4680BD95
S31500004CC078840800ACBB002080B582B000AF4EF6F9
S31500004CD0C87000F05DF83B1D0221184600F080F810
S31500004CE03B791B021AB27B791BB213431BB2FB80C2
S31500004CF0FB8803F03F03082B01D1012300E00023CA
S31500004D0018460837BD4680BD80B584B000AF03465F
S31500004D10FB71FB79032B14D0032B19DC002B02D07B
S31500004D20022B07D014E046F29C03FB81154B0322AD
S31500004D301A7014E047F2DF03FB81124B18221A7037
S31500004D400DE047F66603FB810E4B5F221A7006E004
S31500004D5046F62503FB810B4B07221A7000BFFB8921
S31500004D60184600F015F8084B00221A7000F048F8B3
S31500004D700346064A1360034B1B7818461037BD4698
S31500004D8080BD00BFC0BB0020C1BB0020BCBB002053
S31500004D9080B584B000AF0346FB800023BB81FB884F
S31500004DA01B0A9BB2DBB23B73FB88DBB27B7307F15A
S31500004DB00C030221184600F051FC00BF1037BD4617
S31500004DC080BD80B582B000AF78600B46FB70FB7883
S31500004DD01946786800F042FC00BF0837BD4680BD22
S31500004DE080B582B000AF78600B46FB70FB78194641
S31500004DF0786800F0F9FB00BF0837BD4680BDFFFFAD
S31500004E0080B400AF034B1B681846BD465DF8047BB3
S31500004E10704700BFC4BB002080B483B000AF786089
S31500004E207B681B79002B04D1054B1B680133044AB0
S31500004E30136000BF0C37BD465DF8047B704700BFAA
S31500004E40C4BB002080B500AF462006F01FF9FBE783
S31500004E5080B582B000AF00237B60184918487AF00D
S31500004E604DFF78607B68002B16D01649164801F076
S31500004E70C7FB1648FDF744F9154801F0C1FB134876
S31500004E80FDF73EF97B68002B0CD07A6811490020AB
S31500004E90FEF7BAFB00BE05E00F4801F0B1FB0B4878
S31500004EA0FDF72EF900F020F80C4A0D490D4801F0E7
S31500004EB0E3FC0A2006F0EAF8FBE700BF8CA5080031
S31500004EC08C750120588508008084080074C800206D
S31500004ED09C840800C8840800E88408003C1C002064
S31500004EE09C08002074CC002080B582B000AF00235F
S31500004EF07B60174B9B681B68154A12681449496802
S31500004F001046984778607B68002B06D1114801F05F
S31500004F1077FB1148FDF7F4F815E01049104801F049
S31500004F206FFB0D48FDF7ECF80E4801F069FB0A48E7
S31500004F30FDF7E6F87B68002B05D07A680A49002061
S31500004F40FEF762FB00BE00BF0837BD4680BD00BF4E
S31500004F5064A308001885080074C80020708508003E
S31500004F60808408003C850800C884080080B582B0AB
S31500004F7000AF7860054B1B68002B02D0034B1B6803
S31500004F80984700BF0837BD4680BD00BF94CD0020BE
S31500004F9080B582B000AF174B9B681B68154A126834
S31500004FA0144949681046984778607B68002B17D0EB
S31500004FB01149124801F024FB1148FDF7A1F8796860
S31500004FC0104801F01DFB0E48FDF79AF87B68002B90
S31500004FD00CD07A680C490020FEF716FB00BE05E0EF
S31500004FE00A4801F00DFB0648FDF78AF800BF0837AE
S31500004FF0BD4680BD64A208009C8608009085080016
S3150000500074C80020AC850800D0850800F08508002B
S3150000501080B584B000AF484B00221A70474B9B689E
S315000050205B68464A1268104698470346444A13602E
S31500005030434B1B68002B06D0424B434A4C21434846
S315000050407EF009F900BF3C4B1B78DBB283F001030D
S31500005050DBB2002BF6D1384B00221A70374B9B6817
S315000050609B68364A126807F10C01104698470346BA
S31500005070334A1360324B1B68002B06D0314B324A41
S31500005080592132487EF0E7F800BF2B4B1B78DBB284
S3150000509083F00103DBB2002BF6D1284B9B68DB685B
S315000050A0264A10683A1D07F10C0198470346244A20
S315000050B01360234B1B68002B0AD0214B1B68B3F5EA
S315000050C0403F05D0224B204A5F2120487EF0C3F89E
S315000050D01B4B1B68B3F5403FBDD0B7F9043007EE54
S315000050E0903AB8EEE77AB7F9063007EE903AF8EE5E
S315000050F0E77ADFED186A67EEA67A77EE277A164B1F
S31500005100C3ED007AB7F9083007EE903AB8EEE77AC1
S31500005110B7F90A3007EE903AF8EEE77ADFED0D6A56
S3150000512067EEA67A77EE277A0B4BC3ED017A00BFBE
S315000051301037BD4680BD00BFD4BB002064A2080066
S31500005140C8BB002010860800BC8608002886080018
S315000051503C8608000AD7233CCCBB002080B582B031
S3150000516000AF78607B681B79002B03D10C4B0122C2
S315000051701A7010E07B681B79012B0CD109490A488B
S3150000518001F03EFA0948FCF7BBFF094801F038FA7E
S315000051900648FCF7B5FF00BF0837BD4680BD00BF17
S315000051A0D4BB0020C88608009085080074C800207B
S315000051B08086080080B582B000AF134B9B681B68E1
S315000051C0114A1268104949681046984778607B680A
S315000051D0002B0ED00D490E4801F012FA0D48FCF7CF
S315000051E08FFF79680C4801F00BFA0A48FCF788FF34
S315000051F005E00A4801F004FA0648FCF781FF00BF03
S315000052000837BD4680BD00BFE0A30800A48708009C
S31500005210D886080074C80020F4860800188708009D
S3150000522080B582B000AF174B9B681B68154A1268A1
S31500005230144949681046984778607B68002B17D058
S315000052401149124801F0DCF91148FCF759FF796859
S31500005250104801F0D5F90E48FCF752FF7B68002B89
S315000052600CD07A680C490020FEF7CEF900BE05E0A6
S315000052700A4801F0C5F90648FCF742FF00BF0837A7
S31500005280BD4680BD5CA40800C4870800D886080017
S3150000529074C800203C8708006087080080870800E3
S315000052A080B483B000AF78607B681B79002B03D194
S315000052B00A4B01221A700AE07B681B79012B03D185
S315000052C0064B01221A7002E0044B02221A7000BF3C
S315000052D00C37BD465DF8047B704700BFD5BB002088
S315000052E080B483B000AF78607B681B79002B03D154
S315000052F00A4B01221A700AE07B681B79012B03D145
S31500005300064B01221A7002E0044B02221A7000BFFB
S315000053100C37BD465DF8047B704700BFD7BB002045
S3150000532080B483B000AF7860044B01221A7000BFCE
S315000053300C37BD465DF8047B704700BFD6BB002026
S3150000534080B483B000AF7860044B01221A7000BFAE
S315000053500C37BD465DF8047B704700BFD8BB002004
S3150000536080B582B000AF00237B60134B9B681B683F
S31500005370114A1268104949681046984778607B6858
S31500005380002B06D10D4801F03BF90D48FCF7B8FE9D
S315000053900DE00C490C4801F033F90948FCF7B0FE62
S315000053A079680A4801F02CF90548FCF7A9FE00BF08
S315000053B00837BD4680BD00BF10A30800E48708007B
S315000053C074C80020B88808000888080024880800E7
S315000053D080B582B000AF00237B60174B9B681B68CB
S315000053E0154A1268144949681046984778607B68E0
S315000053F0002B17D01149124801F002F91148FCF7A9
S315000054007FFE7968104801F0FBF80E48FCF778FE3D
S315000054107B68002B0CD07A680C490020FEF7F4F864
S3150000542000BE05E00A4801F0EBF80648FCF768FE06
S3150000543000BF0837BD4680BDBCA20800CC88080066
S315000054400888080074C8002050880800748808007E
S315000054509488080080B500AFFEF70CFEFEF7A2FCAC
S31500005460FFF784F94FF47A7000F060F9FEF702FD59
S315000054700420FFF7A5F90120FEF710FE0620FEF72F
S3150000548043FE0A20FEF784FE0020FEF791FE06206A
S31500005490FEF7C2FE00BF80BD90B589B000AF0346DF
S315000054A03960FB711346BB714FF47A73FB831B4B58
S315000054B000221A70FB1DFB6001233B753B683B61B4
S315000054C0BB797B75164B9B681C69154B186807F1F1
S315000054D00C030ECBA047B861BB69002B12D108E0C4
S315000054E0FB8B013BFB83FB8B002B07D0012000F0DD
S315000054F011F90A4B1B78002BF2D000E000BF074BD6
